S02600004E696B466F637573537461636B41646146727569744C6364536869656C642E737265636A
S1130000E0C1000006C2000004C2000002C20000F9
S113001000C20000FEC10000FCC10000FAC10000E3
S1130020F8C10000F6C10000F4C10000F2C10000F4
S1130030F0C10000EEC10000ECC10000EAC1000004
S11300400C944C2CE6C100000C948E290C94CF29FE
S1130050E0C10000DEC10000DCC10000DAC1000024
S11300600C947E25D6C10000AB26AF26AF26AF2662
S1130070AF26AF26AF26AF26AF25AF26AF26AF26D5
S1130080AF26AF26AF26AF26AF25AF26AF26AF26C5
S1130090AF26AF26AF26AF26B825AF26AF26AF26AC
S11300A0AF26AF26AF26AF26E325AF26AF26AF2671
S11300B0AF26AF26AF26AF26B825AF26AF26AF268C
S11300C0AF26AF26AF26AF26E825AF26AF26AF264C
S11300D0AF26AF26AF26AF26ED25AF26AF26AF2637
S11300E0AF26AF26AF26AF260226AF26AF26AF2611
S11300F0AF26AF26AF26AF262F26AF26AF26AF26D4
S1130100AF26AF26AF26AF26F225AF26AF26AF2601
S1130110AF26AF26AF26AF260E26AF26AF26AF26D4
S1130120AF26AF26AF26AF263126AF26AF26AF26A1
S1130130AF26AF26AF26AF263126AF26AF26AF2691
S1130140AF26AF26AF26AF263126AF26AF26AF2681
S1130150AF26AF26AF26AF263126AF26AF26AF2671
S1130160AF26AF26AF26AF263926AF26AF26AF2659
S1130170AF26AF26AF26AF267126AF26AF26AF2611
S1130180AF26AF26AF26AF263926AF26AF26AF2639
S1130190AF26AF26AF26AF267126AF26AF26AF26F1
S11301A0AF26AF26AF26AF265326AF26AF26AF26FF
S11301B0AF26AF26AF26AF267426AF26AF26AF26CE
S11301C0AF26AF26AF26AF267426AF26AF26AF26BE
S11301D0AF26AF26AF26AF268A26AF26AF26AF2698
S11301E0AF26AF26AF26AF26A626AF26AF26AF266C
S11301F0AF26AF26AF26AF26A626AF26AF26AF265C
S1130200AF26AF26AF26AF26AF26AF26AF26AF2642
S1130210AF26AF26AF26AF26AF26AF26AF26AF2632
S1130220AF26AF26AF26AF26AF26AF26AF26AF2622
S1130230AF26AF26AF26AF26AF26AF26AF26AF2612
S1130240AF26AF26AF26AF26AF26AF26AF26AF2602
S1130250AF26AF26AF26AF26AF265553422064699A
S113026064206E6F742073746172742E004E6F7408
S1130270206E696B6F6E00436170204F4B004361C9
S11302807074757265004C56206F6E00466F63750E
S113029073004C56206F666600496E6600436172B7
S11302A06446756C6C00526573746F72650020202F
S11302B0202020202000202020200044656C61792B
S11302C0002020202000202020202020202000307A
S11302D0003000300020202000596573004E6F006C
S11302E000000007000201000003040600000000F3
S11302F000000000010204081020408001020408EC
S1130300102001020408102004040404040404045A
S113031002020202020203030303030300000000BB
S1130320250028002B0000000000240027002A00DC
S113033042756666657220706F696E7465722069B5
S113034073204E554C4C210D0A000D0A00285553BC
S1130350423A3A496E5472616E7366657229206539
S1130360702072657175657374656420000D0A00F0
S1130370285553423A3A496E5472616E73666572F7
S11303802920616464722072657175657374656493
S113039020000D0A00285553423A3A496E547261BE
S11303A06E73666572292053657441646472657363
S11303B073204661696C65642000EB0FE6288B2A84
S11303C0F70F11241FBECFEFD8E0DEBFCDBF12E080
S11303D0A0E0B1E0ECE6FEE702C005900D92AA367B
S11303E0B107D9F725E0AAE6B2E001C01D92AF3209
S11303F0B207E1F713E0C0ECD3E004C02297FE019A
S11304000E94BB3ECA3BD107C9F70E94E12A0C9463
S11304102A3FF6CDCF93DF931F92CDB7DEB7898302
S1130420698188E694E00E94CF270F90DF91CF91F5
S11304300895CF93DF93CDB7DEB788E694E00E94AA
S11304406828DF91CF910895CF93DF9300D01F9256
S1130450CDB7DEB79A8389836B838B81883010F0A4
S113046087E08B8389819A812B81FC01208388E634
S113047094E00E94132789819A81FC018081806223
S1130480882F90E0BC0188E694E00E94852780E0F4
S1130490C1DF8FEFBFDF88E694E00E94BF27898128
S11304A09A81FC0180818062882F90E0BC0188E6FB
S11304B094E00E94852781E0ADDF8FEFABDF88E613
S11304C094E00E94BF270F900F900F90DF91CF917F
S11304D00895CF93DF9300D0CDB7DEB79A83898395
S11304E089819A8160E0B0DF0F900F90DF91CF9106
S11304F00895CF93DF9300D000D000D0CDB7DEB7FE
S11305009C838B836D834E838D81803108F062C020
S11305108D81883010F41A8205C081E08A838D8130
S113052088508D838B819C81FC0180818062882F1F
S113053090E0BC0188E694E00E9485278A816ADF06
S113054088E694E00E94BF278B819C81FC01808116
S11305508062882F90E041E050E0BC0188E694E09E
S11305600E944F2766DF89838E81882381F48D81E1
S1130570282F30E081E090E0022E02C0880F991FFE
S11305800A94E2F7982F8981892B89830FC08D8182
S1130590282F30E081E090E002C0880F991F2A954F
S11305A0E2F7982F90958981892389838B819C8197
S11305B0FC0180818062882F90E0BC0188E694E091
S11305C00E9485278A8126DF898124DF88E694E0DA
S11305D00E94BF2726960FB6F894DEBF0FBECDBF8C
S11305E0DF91CF910895CF93DF9300D000D01F9275
S11305F0CDB7DEB79D838C831A8219828C819D814D
S1130600FC0180818062882F90E0BC0188E694E040
S11306100E94852782E1FEDE88E694E00E94BF27DF
S11306208C819D81FC0180818062882F90E042E072
S113063050E0BC0188E694E00E944F27FADE8B83E9
S1130640F8DE882F90E09A83898389819A81982F94
S113065088279A8389838B81882F90E029813A8126
S1130660822B932B9A83898389819A810F900F908F
S11306700F900F900F90DF91CF910895CF93DF9358
S113068000D000D0CDB7DEB79A8389837C836B8397
S113069089819A81FC0180818062882F90E0BC016D
S11306A088E694E00E94852782E1B4DE8B81B2DE85
S11306B08B819C81892F9927ADDE88E694E00E9486
S11306C0BF270F900F900F900F90DF91CF91089557
S11306D0CF93DF93CDB7DEB727970FB6F894DEBF7D
S11306E00FBECDBF9D838C836E834F838E818031FB
S11306F008F067C08E81883028F484E18B8382E11E
S11307008A8307C085E18B8383E18A838E81885045
S11307108E838C819D81FC0180818062882F90E092
S1130720BC0188E694E00E9485278B8173DE88E60D
S113073094E00E94BF278C819D81FC0180818062AE
S1130740882F90E041E050E0BC0188E694E00E94EC
S11307504F276FDE89838F81813081F48E81282F2A
S113076030E081E090E0022E02C0880F991F0A94C5
S1130770E2F7982F8981892B89830FC08E81282FD6
S113078030E081E090E002C0880F991F2A95E2F7DB
S1130790982F90958981892389838C819D81FC017F
S11307A080818062882F90E0BC0188E694E00E94FA
S11307B085278A812FDE89812DDE88E694E00E94D8
S11307C0BF2727960FB6F894DEBF0FBECDBFDF91CB
S11307D0CF910895CF93DF9300D000D000D0CDB750
S11307E0DEB79C838B836D834E838D81803108F0CB
S11307F063C08D81883018F48CE08A8305C08DE055
S11308008A838D8188508D838B819C81FC018081BA
S11308108062882F90E0BC0188E694E00E948527DE
S11308208A81F8DD88E694E00E94BF278B819C8151
S1130830FC0180818062882F90E041E050E0BC019F
S113084088E694E00E944F27F4DD89838E8181300D
S113085081F48D81282F30E081E090E0022E02C0E7
S1130860880F991F0A94E2F7982F8981892B89832D
S11308700FC08D81282F30E081E090E002C0880F06
S1130880991F2A95E2F7982F909589818923898366
S11308908B819C81FC0180818062882F90E0BC0167
S11308A088E694E00E9485278A81B4DD8981B2DDDF
S11308B088E694E00E94BF2726960FB6F894DEBF20
S11308C00FBECDBFDF91CF910895CF93DF9300D0BA
S11308D000D0CDB7DEB79B838A836C838C81803153
S11308E010F080E038C08C81883018F482E189836C
S11308F005C083E189838C8188508C838A819B81A4
S1130900FC0180818062882F90E0BC0188E694E03D
S11309100E94852789817EDD88E694E00E94BF27B6
S11309208A819B81FC0180818062882F90E041E074
S113093050E0BC0188E694E00E944F277ADD882FBE
S113094090E02C81222F30E0022E02C095958795ED
S11309500A94E2F781700F900F900F900F90DF913F
S1130960CF910895CF93DF9300D0CDB7DEB79A83AC
S1130970898389819A8120E332E0FC0131832083D9
S113098089819A81FC01138212820F900F90DF916A
S1130990CF910895CF93DF9300D0CDB7DEB79A837C
S11309A0898389819A81DEDF89819A8126E831E011
S11309B0FC013183208389819A81FC01128E898113
S11309C09A81FC01148A89819A812FE0FC01248395
S11309D089819A812EE0FC01258389819A812DE009
S11309E0FC01268389819A812CE0FC01278389817B
S11309F09A812BE0FC01208789819A812AE0FC01FD
S1130A00218789819A8129E0FC01228789819A8141
S1130A10FC01178689819A8121E0FC01208B898160
S1130A209A8122E0FC01218B89819A8123E0FC01D7
S1130A30228B89819A8124E0FC01238B0F900F90F3
S1130A40DF91CF910895CF93DF93CDB7DEB727978A
S1130A500FB6F894DEBF0FBECDBF9C838B836D832E
S1130A604E832F838B819C81FC01828D8F3F09F4FF
S1130A7082C088E694E00E9413278B819C814B9668
S1130A8028DD8B819C814B9641E068E032DD8B81CF
S1130A909C814B9641E066E02CDD8B819C814B96DA
S1130AA041E067E026DD8B819C8167E02DD28B815C
S1130AB09C81FC018581882351F08B819C81FC0100
S1130AC025818B819C814B9641E0622F12DD8B81C5
S1130AD09C81FC0124818B819C814B9641E0622F97
S1130AE008DD8B819C81FC0126818B819C814B9646
S1130AF041E0622FFEDC198213C08981882F90E0C7
S1130B002B813C81820F931F0796FC0120818B81EE
S1130B109C814B9641E0622FECDC89818F5F898355
S1130B208981843050F31A8223C08A81882F90E00F
S1130B302B813C81820F931F0F96FC0120818B81B6
S1130B409C814B9640E0622FD4DC8A81882F90E010
S1130B502B813C81820F931F0F96FC0120818B8196
S1130B609C814B9641E0622F35DE8A818F5F8A83B8
S1130B708A818530D0F28E81823050F08B819C81C5
S1130B80FC018489282F28608B819C81FC01248BA3
S1130B908B819C812E81FC01208F8B819C81FC01A7
S1130BA0118E8F81882369F08E81813051F48B817D
S1130BB09C81FC018489282F24608B819C81FC0109
S1130BC0248B80E593EC0E94F62C8B819C81FC01A4
S1130BD024818B819C8140E0622F74D18B819C8124
S1130BE0FC0126818B819C8140E0622F6BD18B813B
S1130BF09C81FC0185818F3F49F08B819C81FC01A4
S1130C0025818B819C8140E0622F5CD18B819C810A
S1130C10FC018489882F90E0807199270097E9F47A
S1130C208B819C8163E04DD284E991E10E94F62C92
S1130C308B819C8163E045D284E991E10E94F62C8A
S1130C408B819C8163E03DD286E990E00E94F62C82
S1130C508B819C8162E035D226C08B819C81FC0112
S1130C608489282F20628B819C81622F01D184E9A1
S1130C7091E10E94F62C8B819C81FC018489282FB0
S1130C8020628B819C81622FF3D086E990E00E94E0
S1130C90F62C8B819C81FC018489282F20628B8116
S1130CA09C81622FE5D08B819C81FC018489282F53
S1130CB020628B819C81622FDBD08B819C8124E01C
S1130CC0FC01258B8B819C8173D08B819C8118D0F6
S1130CD08B819C8122E0FC01268B8B819C81FC0111
S1130CE08689282F24608B819C81622FC1D027960E
S1130CF00FB6F894DEBF0FBECDBFDF91CF9108953C
S1130D00CF93DF9300D0CDB7DEB79A8389838981EF
S1130D109A8161E0ADD080ED97E00E94F62C0F90AF
S1130D200F90DF91CF910895CF93DF93CDB7DEB7C6
S1130D302C970FB6F894DEBF0FBECDBF9A87898774
S1130D406B874C8728E0EAE1F1E0CE010196DC01F3
S1130D5001900D922A95E1F789859A85FC01908D81
S1130D608C85981730F489859A85FC01808D815093
S1130D708C878C85882F90E0880F991F9E012F5FA8
S1130D803F4F820F931FFC0180819181982F8B85A7
S1130D90890F8068282F89859A85622F69D02C96BF
S1130DA00FB6F894DEBF0FBECDBFDF91CF9108958B
S1130DB0CF93DF9300D0CDB7DEB79A83898389813F
S1130DC09A81FC018589282F246089819A81FC01FC
S1130DD0258B89819A81FC018589282F2860898146
S1130DE09A81622F45D00F900F90DF91CF91089593
S1130DF0CF93DF9300D0CDB7DEB79A8389838981FF
S1130E009A81FC018589282F2D7F89819A81FC0193
S1130E10258B89819A81FC018589282F2860898105
S1130E209A81622F25D00F900F90DF91CF91089572
S1130E30CF93DF9300D0CDB7DEB79A8389838981BE
S1130E409A81FC018589282F226089819A81FC017D
S1130E50258B89819A81FC018589282F28608981C5
S1130E609A81622F05D00F900F90DF91CF91089552
S1130E70CF93DF9300D01F92CDB7DEB79A838983D7
S1130E806B8389819A8140E06B819CD00F900F9095
S1130E900F90DF91CF910895CF93DF9300D01F92ED
S1130EA0CDB7DEB79A8389836B8389819A8141E0C8
S1130EB06B8188D081E090E00F900F900F90DF91CC
S1130EC0CF910895CF93DF9300D000D0CDB7DEB794
S1130ED09A8389836B834C8389819A81FC01828DF7
S1130EE08F3F39F089819A814B964C816B81F0DB7D
S1130EF004C06C818B810E949D2D0F900F900F90E8
S1130F000F90DF91CF910895CF93DF9300D01F927C
S1130F10CDB7DEB79A8389836B838B81882F90E06A
S1130F208470992721E0009709F020E089819A8153
S1130F304B96422F68E0CCDB8B81882F90E0827047
S1130F40992721E0009709F020E089819A814B9646
S1130F50422F67E0BDDB8B81882F90E08170992759
S1130F6021E0009709F020E089819A814B96422F75
S1130F7066E0AEDB0F900F900F90DF91CF91089554
S1130F80CF93DF9300D000D0CDB7DEB79A838983A7
S1130F906B834C8389819A81FC01828D8F3F39F068
S1130FA089819A814B964C816B81A3DA04C06C8150
S1130FB08B810E94652D0F900F900F900F90DF9101
S1130FC0CF910895CF93DF9300D000D0CDB7DEB793
S1130FD09A8389836B834C8389819A81FC01248160
S1130FE089819A814C81622F6DDF89819A81FC010C
S1130FF085818F3F49F089819A81FC01258189810E
S11310009A8140E0622F5EDF89819A81FC018489A4
S1131010882F90E080719927009729F089819A811F
S11310206B8153D114C08B81882F90E0959587955F
S1131030959587959595879595958795282F898179
S11310409A81622F3ED089819A816B813AD00F9028
S11310500F900F900F90DF91CF910895CF93DF936E
S113106000D0CDB7DEB79A83898389819A81FC0148
S1131070268189819A8140E0622F24DF81E090E01B
S11310800E94F62C89819A81FC01268189819A81AA
S113109041E0622F17DF81E090E00E94F62C898105
S11310A09A81FC01268189819A8140E0622F0ADFBE
S11310B084E690E00E94F62C0F900F90DF91CF9180
S11310C00895CF93DF93CDB7DEB729970FB6F89481
S11310D0DEBF0FBECDBF98878F8369878F819885C8
S11310E0FC01828D8F3F09F4B1C01A8219828F816D
S11310F098854B9678DA9A8389831C821B8241C037
S11311002F8138858B819C81820F931F0796FC0168
S11311108081282F30E081E090E002C0880F991F81
S11311202A95E2F78095909529813A818223932329
S11311309A8389838985882F90E00B8002C09595D6
S113114087950A94E2F7817099274F8158852B81FE
S11311503C81240F351F295F3F4FF9012081222F45
S113116030E002C0880F991F2A95E2F729813A815D
S1131170822B932B9A8389838B819C8101969C83F8
S11311808B838B819C81843091050CF4B9CF8F8142
S11311909885FC018681282F30E081E090E002C030
S11311A0880F991F2A95E2F78095909529813A81B5
S11311B0822393239A8389838F8198854B962981EF
S11311C03A81B9015BDA81E090E00E94F62C8F81CC
S11311D09885FC018681282F30E081E090E002C0F0
S11311E0880F991F2A95E2F729813A81822B932B44
S11311F09A8389838F8198854B9629813A81B90195
S11312003DDA81E090E00E94F62C8F819885FC0104
S11312108681282F30E081E090E002C0880F991F7A
S11312202A95E2F78095909529813A818223932328
S11312309A8389838F8198854B9629813A81B90154
S11312401DDA84E690E00E94F62C36C01E821D82D0
S11312502BC02F8138858D819E81820F931F079625
S1131260FC0120818F81988541E0622F89DE898588
S1131270882F90E00D8002C0959587950A94E2F737
S1131280482F41702F8138858D819E81820F931F55
S11312900796FC0120818F819885622F13DE8D8152
S11312A09E8101969E838D838D819E8184309105DC
S11312B084F28F819885D2DE29960FB6F894DEBF2A
S11312C00FBECDBFDF91CF910895CF93DF9300D0B0
S11312D000D01F92CDB7DEB79C838B836D831A82B7
S11312E019822BC02B813C8189819A81820F931FA3
S11312F00796FC0120818B819C8141E0622F40DEB6
S11313008D81882F90E0098002C0959587950A9475
S1131310E2F7482F41702B813C8189819A81820FA9
S1131320931F0796FC0120818B819C81622FCADD6B
S113133089819A8101969A83898389819A818830E7
S1131340910584F28B819C8189DE0F900F900F9020
S11313500F900F90DF91CF910895CF93DF9300D03A
S113136000D0CDB7DEB79C838B838FE189831A824B
S113137024C08A81882F90E02B813C81820F931FA7
S11313800F96FC0120818B819C814B96622F9DDA04
S1131390882F90E02A81222F30E002C0880F991F05
S11313A02A95E2F7809590952981222F30E08223B7
S11313B0932389838A818F5F8A838A818530C8F2E7
S11313C089810F900F900F900F90DF91CF91089526
S11313D0CF93DF9300D000D01F92CDB7DEB79A83AE
S11313E089837C836B834D8389819A812B813C81A2
S11313F0FC013183208389819A812D81FC01228320
S113140089819A81FC01148213820F900F900F90AE
S11314100F900F90DF91CF9108950F93CF93DF93A7
S1131420CDB7DEB728970FB6F894DEBF0FBECDBF99
S11314309A8389837C836B835E834D832F830887A0
S113144089819A812B813C81FC01318320838981AC
S11314509A812885FC01228389819A812D813E818C
S1131460FC013483238389819A812F81FC012583A4
S1131470988581E08927282F89819A81FC01268318
S113148089819A8107964F816FEF7FEFA1DF898170
S11314909A81FC0180819181FC0180819181069671
S11314A0FC012081318189819A81FC0183819481AD
S11314B0582F89819A81FC018081918140E0652FB8
S11314C0F901099528960FB6F894DEBF0FBECDBF7B
S11314D0DF91CF910F910895CF93DF9300D000D087
S11314E000D0CDB7DEB79E838D838D819E812FEF93
S11314F03FEFFC01308727838D819E81FC01808131
S11315009181FC01808191810496FC0120813181CB
S11315108D819E81FC0183819481482F8D819E81E0
S1131520FC0180819181642FF9010995882F90E055
S1131530A0E0B0E089839A83AB83BC838D819E81D4
S1131540FC018681282F30E040E050E089819A81B7
S1131550AB81BC81281739074A075B07F1F08D81FD
S11315609E81FC018281282F30E040E050E0898197
S11315709A81AB81BC81281739074A075B0731F48C
S11315808D819E81FC011086178207C08D819E810A
S113159021E030E0FC013087278329818D819E8101
S11315A0FC0126838D819E81079626960FB6F894BA
S11315B0DEBF0FBECDBFDF91CF910895CF93DF93F0
S11315C01F92CDB7DEB7898385E290E025E230E053
S11315D0F90130812981232BFC0120830F90DF91B5
S11315E0CF910895CF93DF931F92CDB7DEB7898350
S11315F085E290E025E230E0F9012081322F298153
S113160020952323FC0120830F90DF91CF9108952F
S1131610CF93DF931F92CDB7DEB7898384E290E046
S113162024E230E0F90130812981232BFC0120835D
S11316300F90DF91CF910895CF93DF931F92CDB791
S1131640DEB7898384E290E024E230E0F90120816E
S1131650322F298120952323FC0120830F90DF91D1
S1131660CF910895CF93DF9300D000D000D0CDB7B1
S1131670DEB79A8389834B835C836D837E838B81FE
S11316809C81AD81BE8129813A81F9018687978742
S1131690A08BB18B26960FB6F894DEBF0FBECDBFDC
S11316A0DF91CF910895CF93DF9300D000D000D085
S11316B0CDB7DEB79A8389834B835C836D837E8346
S11316C08B819C81AD81BE8129813A81F901828B14
S11316D0938BA48BB58B26960FB6F894DEBF0FBE02
S11316E0CDBFDF91CF910895CF93DF9300D0CDB7D5
S11316F0DEB79A83898389819A81FC012689378997
S1131700408D518D88EE93E0DC010E94BF3EDC01E8
S1131710CB01BC01CD010F900F90DF91CF910895C3
S1131720CF93DF9300D000D000D0CDB7DEB79A833B
S113173089834B835C836D837E838B819C81AD81A4
S1131740BE8129813A81F901868B978BA08FB18F55
S113175026960FB6F894DEBF0FBECDBFDF91CF91B2
S11317600895CF93DF9300D01F92CDB7DEB79A834D
S113177089836B8389819A812B81FC01228F0F904D
S11317800F900F90DF91CF910895CF93DF93CDB752
S1131790DEB740E855E260E070E084E794E00E9440
S11317A00A2A20E042E060E187E593E04CD987EA29
S11317B092E0B1D1982F81E09F3F09F080E0882327
S11317C089F062E271E084E794E00E94692B2AE5E3
S11317D032E080910A0190910B01B9010E942C2BF7
S11317E01092090180E090E00E94043F9093070169
S11317F080930601809106019091070121E08F3FBB
S11318003FEF930709F420E0222361F08091060161
S113181090910701CC01A0E0B0E0AC01BD018AE7E2
S113182092E020DF82E090E00E94043F9093550311
S113183080935403809154039091550321E08F3F8A
S11318403FEF930709F420E0222361F080915403D1
S113185090915503CC01A0E0B0E0AC01BD018AE752
S113186092E05EDF84E090E00E94FC3E80930801F9
S11318709091080181E09F3F09F480E0882359F0AA
S113188080910801882F90E0A0E0B0E0AC01BD0198
S11318908AE792E008DF85E090E00E94FC3E8093B6
S11318A056039091560381E09F3F09F480E088231A
S11318B051F09091560381E0992309F480E0682F58
S11318C08AE792E04EDFDF91CF910895CF92DF92C5
S11318D0EF92FF920F931F93CF93DF93CDB7DEB7B1
S11318E02C970FB6F894DEBF0FBECDBF87EA92E007
S11318F00E94623D1A82198220C089819A81880FD0
S1131900991F845F9E4FFC0180819181E5DD9C835A
S11319108B838B819C81FC01808191818F3FFFEFC0
S11319209F0731F08B819C81BC018AE692E0D6D579
S113193089819A8101969A83898325E030E089819F
S11319409A8182179307C8F20E94962CDC01CB017E
S11319508D839E83AF83B88781E293E00E94521AFD
S1131960882341F081E293E00E947E1A882311F0DB
S113197081E001C080E0882309F4BEC081E293E0E5
S11319800E94681A982F81E08927882309F4B4C03B
S11319908091020190910301A7DEDC01CB0121E0DB
S11319A00097A105B10509F020E02223D9F081E2D6
S11319B093E00E94941A982F81E08927882309F4E0
S11319C043C081E293E00E94441821E0813000E2A8
S11319D0900709F020E02223B9F181E293E00E940C
S11319E01D1932C081E293E00E94941A982F81E07D
S11319F08927882329F081E293E00E94441824C0B7
S1131A0081E293E00E94AA1ADC01CB012D813E8180
S1131A104F81588569017A01C81AD90AEA0AFB0A72
S1131A2080910201909103015FDEDC01CB0121E092
S1131A30C816D906EA06FB0608F420E0222321F0A2
S1131A4081E293E00E941D198091020190910301AB
S1131A504BDEDC01CB010097A105B105E1F08091DB
S1131A600401909105010E94811DDC01CB012D81AF
S1131A703E814F81588579018A01E81AF90A0A0BD7
S1131A801B0BD801C701893E03E09007A105B105EE
S1131A9010F081E001C080E0882371F1809102019F
S1131AA09091030121DE9B01AC018D819E81AF8168
S1131AB0B88569017A01C81AD90AEA0AFB0A81E2DF
S1131AC093E00E94AA1ADC01CB018C0D9D1DAE1D72
S1131AD0BF1D28EE33E040E050E0BC01CD010E9480
S1131AE0973EDA01C90121E0280F80910401909109
S1131AF00501622F0E942F1D2C960FB6F894DEBFAD
S1131B000FBECDBFDF91CF911F910F91FF90EF904A
S1131B10DF90CF900895CF93DF9300D0CDB7DEB799
S1131B209A83898344D04CD054D068D089819A81D7
S1131B3048E168E86CD089819A819CD021E00097C3
S1131B4009F020E0222311F08FEF2CC089819A81C3
S1131B5041EC68ED5CD089819A8140E660ED57D014
S1131B6089819A8144E068EE52D0000089819A818B
S1131B7068EEBAD0882F90E08470992721E000970E
S1131B8009F020E0222391F789819A81E2D08981AA
S1131B909A8140E268EC3BD089819A8141E060E817
S1131BA036D080E00F900F90DF91CF910895CF93BE
S1131BB0DF93CDB7DEB784E02BDDDF91CF910895BD
S1131BC0CF93DF93CDB7DEB784E0F8DCDF91CF911C
S1131BD00895CF93DF93CDB7DEB732D13AD142D156
S1131BE0E6DF8CE490E020E5FC0120838DE490E0C6
S1131BF021E0FC012083DF91CF910895CF93DF93FF
S1131C00CDB7DEB782E018DDDF91CF910895CF9391
S1131C10DF9300D000D0CDB7DEB79A8389836B837E
S1131C204C8329D18EE490E02B812260FC01208337
S1131C308DE490E0FC0180818095881F8827881FAF
S1131C408823B1F78EE490E02C81FC0120838DE49D
S1131C5090E0FC0180818095881F8827881F882355
S1131C60B1F7AEDF00000F900F900F900F90DF914F
S1131C70CF910895CF93DF9300D000D0CDB7DEB7D6
S1131C809C838B831A8219828B819C8140E268E752
S1131C90BEDF8B819C8140E068E7B9DF0FC08B8198
S1131CA09C8168E621D0882F90E08170992721E0FB
S1131CB0009709F420E0222309F00DC089819A815C
S1131CC001969A83898321E089819A81009709F496
S1131CD020E0222321F789819A810F900F900F90A1
S1131CE00F90DF91CF910895CF93DF9300D000D070
S1131CF0CDB7DEB79B838A836C83BDD08EE490E03E
S1131D002C81FC0120838DE490E0FC01808180958E
S1131D10881F8827881F8823B1F78EE490E0FC0190
S1131D2010828DE490E0FC0180818095881F8827D3
S1131D30881F8823B1F744DF8EE490E0FC018081A2
S1131D40898389810F900F900F900F90DF91CF912D
S1131D500895CF93DF9300D01F92CDB7DEB79B8356
S1131D608A838A819B8168EFBFDF89838981807C34
S1131D7089838981882F90E08034910579F18134B9
S1131D80910524F4009709F44DC054C0803891059E
S1131D9029F0803C910509F441C04CC08A819B81A3
S1131DA068EDA2DF882F90E08270992721E00097E8
S1131DB009F020E0222349F08A819B8149EC68EDF7
S1131DC026DF82E08093B30335C08A819B814BEC8C
S1131DD068ED1DDF83E08093B3032CC08A819B816F
S1131DE068ED82DF882F90E08270992721E00097C8
S1131DF009F020E0222349F08A819B814BEC68EDB5
S1131E0006DF83E08093B30315C08A819B8149EC8C
S1131E1068EDFDDE82E08093B3030CC081E0809323
S1131E20B30308C08A819B8141ED68EDF0DE109216
S1131E30B30300000F900F900F90DF91CF9108959E
S1131E40CF93DF93CDB7DEB780E2E2DBDF91CF91B2
S1131E500895CF93DF93CDB7DEB788E0D9DBDF9168
S1131E60CF910895CF93DF93CDB7DEB780E1E4DB64
S1131E70DF91CF910895CF93DF93CDB7DEB784E0A0
S1131E80B1DBDF91CF910895EF92FF920F931F93EF
S1131E90CF93DF9300D000D0CDB7DEB79A83898388
S1131EA07C836B8389819A818130910509F06FC0AD
S1131EB08B819C818F3F2FEF920709F068C060E00F
S1131EC070E08AE692E0C7D26AE672E08CE692E0BD
S1131ED0AAD01AE0E12EF12C00E010E02AEF30E065
S1131EE040E050E06AE672E08AE792E00E94C11D99
S1131EF06AE672E085E992E00E94361C87EA92E085
S1131F000E9425358EE193E00E94EE1A4EE153E0E3
S1131F1067EA72E081E293E0BED487E593E00E9431
S1131F20CA0480910A0190910B01BC0183E793E0FC
S1131F300E94B51B01E020E040E150E063E773E05C
S1131F4087E793E06ADA01E021E042E050E063E7EA
S1131F5073E083E893E061DA01E022E048E050E0D6
S1131F6063E773E08FE893E058DA01E023E044E0AC
S1131F7050E063E773E08BE993E04FDA01E024E09B
S1131F8041E050E063E773E087EA93E046DA898151
S1131F909A810097A9F48B819C818F3F2FEF920740
S1131FA079F483E793E00E94D71B85E992E00E94CD
S1131FB0611C8AE792E00E94331E8CE692E05FD0B7
S1131FC00F900F900F900F90DF91CF911F910F9171
S1131FD0FF90EF900895CF93DF93CDB7DEB76FEF07
S1131FE07FEF81E090E050DFDF91CF910895CF93B0
S1131FF0DF93CDB7DEB76FEF7FEF80E090E044DF93
S1132000DF91CF910895CF93DF9300D0CDB7DEB7A2
S11320109A83898389819A81FC0184850F900F902A
S1132020DF91CF910895CF93DF9300D000D0CDB747
S1132030DEB79A8389837C836B8389819A812B8120
S11320403C81B901D2D089819A812EE831E0FC012A
S11320503183208389819A8125E331E0FC01358332
S1132060248389819A812BE331E0FC013783268321
S11320700F900F900F900F90DF91CF910895CF9311
S1132080DF9300D0CDB7DEB79A83898389819A81A3
S11320902EE831E0FC01318320830F900F90DF9113
S11320A0CF910895CF93DF9300D000D01F92CDB786
S11320B0DEB79B838A837D836C8381E089838C81F3
S11320C09D81FC0180819181009709F06FC08C8112
S11320D09D81FC018281882F90E08230910509F472
S11320E062C08330910534F4009761F0813091052A
S11320F009F15CC08330910509F457C0843091051F
S113210029F154C08A819B817EDF882F90E000975B
S113211021F08830910539F00CC08A819B8141E01F
S113212068E076D106C08A819B8141E060E070D18D
S113213000003CC081E293E00E94521A882329F0F7
S11321408A819B8141E068E063D130C08A819B81B0
S1132150FC018485882F90E08330910511F188304B
S1132160910571F0009709F01DC020910201309192
S113217003018C819D81FC0134832383198212C065
S113218081E293E00E94521A882351F020910401C5
S1132190309105018C819D81FC0134832383198254
S11321A001C0000003C0000001C0000089810F903D
S11321B00F900F900F900F90DF91CF910895CF93D0
S11321C0DF9300D0CDB7DEB79A838983909109015C
S11321D081E08927882309F003C089819A8163D02B
S11321E00F900F90DF91CF910895CF93DF9300D09C
S11321F000D0CDB7DEB79A8389837C836B838981D2
S11322009A8126E931E0FC013183208389819A8116
S11322102B813C81FC013383228389819A81FC01D7
S1132220148689819A8121E0FC01258789819A811C
S1132230049648E050E060E070E00E94F53E0F90A4
S11322400F900F900F90DF91CF910895CF93DF936C
S113225000D000D0CDB7DEB79A8389836B834C83DB
S113226080910A0190910B0140E06B810E949406D9
S11322708C81882F90E029813A810296880F991FDA
S1132280820F931FFC012081318180910A0190917A
S11322900B01B9010E944D2B0F900F900F900F90DE
S11322A0DF91CF910895CF93DF9300D0CDB7DEB700
S11322B09A83898380910A0190910B010E94800680
S11322C089819A81FC01848195810097A1F0809194
S11322D00A0190910B0140E060E00E94940689811C
S11322E09A81FC012481358180910A0190910B012E
S11322F0B9010E944D2B89819A81FC0186819781C5
S11323000097A1F080910A0190910B0140E068E0F0
S11323100E94940689819A81FC01268137818091EB
S11323200A0190910B01B9010E944D2B89819A8178
S1132330FC01808591850097A1F080910A0190911C
S11323400B0141E060E00E94940689819A81FC01BE
S11323502085318580910A0190910B01B9010E9479
S11323604D2B89819A81FC01828593850097A1F088
S113237080910A0190910B0141E068E00E9494066B
S113238089819A81FC012085318580910A0190918F
S11323900B01B9010E944D2B89819A81FC0114869D
S11323A089819A8161E005D00F900F90DF91CF91E0
S11323B00895CF93DF9300D01F92CDB7DEB79A83F1
S11323C089836B8389819A81FC01358589819A810E
S11323D0FC01248580910A0190910B01432F622F07
S11323E00E9494068B81882339F080910A01909190
S11323F00B010E94180706C080910A0190910B01FD
S11324000E94F8060F900F900F90DF91CF910895DE
S1132410CF93DF9300D000D0CDB7DEB79A83898302
S11324206B834C8389819A8160E0C3DF89819A81BF
S11324302B81FC01248789819A812C81FC012587C9
S113244089819A8161E0B5DF0F900F900F900F9012
S1132450DF91CF910895CF93DF9300D000D0CDB713
S1132460DEB79A8389837C836B8389819A812B81EC
S11324703C81FC01318320830F900F900F900F90CB
S1132480DF91CF910895CF93DF9300D000D0CDB7E3
S1132490DEB79A8389837C836B8389819A812B81BC
S11324A03C81FC013183208389819A81FC018081F4
S11324B09181FC01808191810296FC01208131810E
S11324C089819A81FC0180819181F90109950F909C
S11324D00F900F900F90DF91CF910895CF93DF93DA
S11324E0CDB7DEB728970FB6F894DEBF0FBECDBFC9
S11324F09E838D8378876F8381E090E09A838983BC
S11325008D819E81FC0180819181009709F443C0F3
S11325108D819E81FC0180819181FC01808191816A
S1132520FC01208131818D819E81FC01808191811A
S11325304F815885BA01F9010995882F90E09C8351
S11325408B838B819C81009709F025C08F819885AE
S1132550FC01838194810097E9F08F819885FC01C7
S1132560238134818D819E81FC01318320838D817F
S11325709E81FC0180819181FC0180819181029680
S1132580FC01208131818D819E81FC0180819181BA
S1132590F901099500008F819885FC01148213824A
S11325A089819A8128960FB6F894DEBF0FBECDBFFD
S11325B0DF91CF910895CF93DF9300D000D01F9285
S11325C0CDB7DEB79A8389836B834C832D8380E0F8
S11325D00F900F900F900F900F90DF91CF9108956F
S11325E0CF93DF9300D01F92CDB7DEB79A83898350
S11325F06B8300000F900F900F90DF91CF9108959F
S1132600CF93DF9300D000D000D0CDB7DEB79A834C
S113261089837C836B835E834D8380E026960FB62B
S1132620F894DEBF0FBECDBFDF91CF910895CF9355
S1132630DF9300D01F92CDB7DEB79A8389836B8373
S113264080E00F900F900F90DF91CF910895CF937A
S1132650DF9300D0CDB7DEB79A83898389819A81CD
S11326600F900F90DF91CF910895CF93DF9300D017
S1132670CDB7DEB79A83898389819A81FC0111825F
S1132680108289819A81FC01128289819A81FC01DC
S113269013820F900F90DF91CF910895CF93DF9322
S11326A000D0CDB7DEB79A83898389819A81FC01F2
S11326B082850F900F90DF91CF910895CF93DF9390
S11326C000D0CDB7DEB79A83898389819A8122ECC1
S11326D031E0FC01318320830F900F90DF91CF9183
S11326E00895CF93DF9300D000D01F92CDB7DEB70B
S11326F09B838A837D836C838A819B81DFDF8A81CC
S11327009B8128E332E0FC01318320838A819B8111
S11327102FEF3FEFFC01338322838A819B812C813D
S11327203D81FC01358324838A819B81FC011782CE
S11327308A819B81FC01128611868A819B81459640
S113274094DF198210C08981882F90E02A813B810F
S1132750880F991F820F931F0F96FC01118210821C
S113276089818F5F89838981833068F38A819B8122
S11327709C01215F3F4F8A819B81FC01368725871D
S11327800F900F900F900F900F90DF91CF910895BD
S1132790CF93DF9300D0CDB7DEB79A838983898145
S11327A09A81FC0120812E7FFC01208389819A81FA
S11327B0FC0120812D7FFC01208389819A81FC0109
S11327C020812B7FFC01208389819A81FC01208157
S11327D0277FFC01208389819A81FC0120812F7E3F
S11327E0FC01208389819A81FC0120812062FC0103
S11327F020830F900F90DF91CF910895CF93DF93B3
S113280000D0CDB7DEB79A83898389819A81FC0190
S113281086859785A089B189BC01CD010F900F9061
S1132820DF91CF910895CF93DF9300D0CDB7DEB77A
S11328309A83898389819A81FC0182899389A489F5
S1132840B589BC01CD010F900F90DF91CF91089510
S1132850CF93DF9300D0CDB7DEB79A838983898184
S11328609A81FC01828D0F900F90DF91CF91089592
S1132870CF93DF9300D0CDB7DEB79A838983898164
S11328809A812CEB31E0FC01318320830F900F906F
S1132890DF91CF910895CF93DF9300D000D000D083
S11328A0CDB7DEB79A8389837C836B835E834D8344
S11328B089819A814D815E812B813C81B9010E947D
S11328C0682F89819A814A96D3DF89819A812EE97A
S11328D031E0FC013183208389819A8126EB31E048
S11328E0FC01338F228F29813A8188EE93E0A0E0A6
S11328F0B0E0F901848F958FA68FB78F89819A8173
S1132900FC0110A211A212A213A289819A818496B9
S11329103FDF89819A81FC0116A215A289819A81DF
S1132920FC0117A210A611A612A689819A81FC01A6
S113293014A613A689819A8124E630E0FC0136A707
S113294025A789819A81FC0117A610AA11AA12AAA7
S113295026960FB6F894DEBF0FBECDBFDF91CF91A0
S113296008950F931F93CF93DF93CDB7DEB76A9784
S11329700FB6F894DEBF0FBECDBF9F8B8E8B688FD2
S1132980498F2A8F1A8219821C821B828E899F8901
S1132990FC01848595855BDE9E838D838E899F896A
S11329A0FC018285882311F089ED80C08D819E8190
S11329B0FC0180819181FC01208131818D819E8186
S11329C060E0F90109959A83898389819A81009746
S11329D011F486ED6BC089819A81FC01808191811B
S11329E0009711F487ED62C089819A81FC0180818E
S11329F091819C838B838E899F899C01225F3F4FA9
S1132A0089819A81FC01318320838E899F89FC010D
S1132A10848595859E01265F3F4F89012CE030E037
S1132A2040E060E00E94A43A8F8389819A812B81DF
S1132A303C81FC01318320838F81882341F061E054
S1132A4070E080E090E00E94D22C8F812FC0CE01F4
S1132A500A969987888788859985FC018085918560
S1132A60803BF4E09F0791F488859985FC012285D9
S1132A7033858E899F89FC0134A723A78E899F897A
S1132A802A8D498D688D0E94EF2F10C080910A0114
S1132A9090910B010E9480062DE632E080910A019C
S1132AA090910B01B9010E942C2B81ED6A960FB60F
S1132AB0F894DEBF0FBECDBFDF91CF911F910F9170
S1132AC00895CF93DF93CDB7DEB76F970FB6F89421
S1132AD0DEBF0FBECDBF9F8F8E8F8E8D9F8D0E94C8
S1132AE08E318E8D9F8DDED4882309F448C00E94D8
S1132AF0962CDC01CB0189839A83AB83BC838E8DB6
S1132B009F8DFC0120A131A142A153A189819A8109
S1132B10AB81BC8182179307A407B50780F18E8D22
S1132B209F8D9C01265E3F4FCE010596B901D9DDEC
S1132B308E8D9F8DFC01808191814096FC012081C6
S1132B403181AE014B5F5F4F8E8D9F8DBA01F901CC
S1132B5009958E8D9F8DFC01248D358D468D578D65
S1132B6089819A81AB81BC81820F931FA41FB51FF9
S1132B702E8D3F8DF90180A391A3A2A3B3A380E07E
S1132B806F960FB6F894DEBF0FBECDBFDF91CF9125
S1132B9008950F931F93CF93DF9300D000D000D0FC
S1132BA0CDB7DEB79C838B837E836D838981887FD9
S1132BB089838981877C898389818F7B89838981C2
S1132BC0806889838A818C7F81608A838A8183700B
S1132BD08A838B819C812D813E81890120E030E0B4
S1132BE0AE014F5F5F4F67EC70E90E949431269607
S1132BF00FB6F894DEBF0FBECDBFDF91CF911F910A
S1132C000F910895CF93DF9300D000D0CDB7DEB7F6
S1132C109A8389837C836B838B819C81009709F4DD
S1132C2022C08B819C81FC01808191818D30F0E4F4
S1132C309F07C9F427E732E08091040190910501D0
S1132C40B901A5D689819A81FC0124A12B7FFC01BD
S1132C5024A389819A81FC0185A196A1009719F486
S1132C6089819A81EAD20F900F900F900F90DF9193
S1132C70CF910895CF93DF93CDB7DEB72A970FB6E0
S1132C80F894DEBF0FBECDBF98878F837A8769879C
S1132C9019821A821B821C828F81988520E030E081
S1132CA040E068EC70E90E94D0349E838D838F816C
S1132CB09885FC0185A596A5CC01A0E0B0E0BC01F7
S1132CC0CD010E94D22C8F81988520E030E040E035
S1132CD068EC70E90E94D0349E838D838F8198853F
S1132CE0FC0185A596A5CC01A0E0B0E0BC01CD0116
S1132CF00E94D22C17C08F81988520E030E040E0FC
S1132D0068EC70E90E94D0349E838D838F8198850E
S1132D10FC0185A596A5CC01A0E0B0E0BC01CD01E5
S1132D200E94D22C8D819E818931F0E29F07D9F4D3
S1132D3089819A81AB81BC810196A11DB11D8983D2
S1132D409A83AB83BC8389859A85CC01A0E0B0E0EB
S1132D5029813A814B815C81281739074A075B072F
S1132D6010F481E001C080E0882329F68D819E81E2
S1132D702A960FB6F894DEBF0FBECDBFDF91CF9178
S1132D800895CF93DF9300D000D01F92CDB7DEB764
S1132D909C838B836D8382E090E29A8389839D81F7
S1132DA081E08927882361F08B819C8120E030E0D9
S1132DB040E062E072E90E94D0349A8389830BC0B8
S1132DC08B819C8120E030E040E061E072E90E9468
S1132DD0D0349A83898389819A81813020E2920751
S1132DE069F48D81282F21708B819C812170220FA1
S1132DF0FC0134A13D7F232BFC0124A389819A810A
S1132E000F900F900F900F900F90DF91CF91089536
S1132E10CF93DF93CDB7DEB72C970FB6F894DEBF10
S1132E200FBECDBF9C878B8782E090E29A83898313
S1132E308B859C85FC0184A18470882309F057C08C
S1132E40809104019091050160E009D62EE732E0FB
S1132E508091040190910501B90199D58FEF9FEFFD
S1132E60DC018B839C83AD83BE831F821886198605
S1132E701A868B859C859E012D5F3F4F42E067E05B
S1132E8072E90E94D0349A83898321E089819A81EE
S1132E908130F0E29F0709F020E0222341F18B8585
S1132EA09C85FC0185A196A121E08230910508F062
S1132EB020E08B859C8521702295220F207EFC01C9
S1132EC034A13F7D232BFC0124A38B859C85FC012D
S1132ED024A12460FC0124A30E94962CDC01CB01D4
S1132EE02B853C85F90187A790ABA1ABB2AB898157
S1132EF09A812C960FB6F894DEBF0FBECDBFDF913A
S1132F00CF9108950F931F93CF93DF93CDB7DEB77F
S1132F1064970FB6F894DEBF0FBECDBF9C878B8736
S1132F204D875E876F87788B098B1A8B2B8B3C8B35
S1132F308981887F826089838981877C898389816B
S1132F408F7B898389818F7789838A818C7F8A8328
S1132F508A8183708A838D859E85AF85B8898B83AA
S1132F609C83AD83BE8389899A89AB89BC898F830D
S1132F709887A987BA878B859C859E012D5F3F4FD3
S1132F8000E010E0AE014F5F5F4F64E072E90E9421
S1132F90943164960FB6F894DEBF0FBECDBFDF91B7
S1132FA0CF911F910F910895CF93DF9300D000D05C
S1132FB0CDB7DEB79C838B8382E090E29A838983CA
S1132FC080910201909103012EDCDC01CB019C0174
S1132FD08B819C81FC0136A325A38B819C81FC0100
S1132FE025A136A18091040190910501B90102D572
S1132FF08B819C81FC0117A210A611A612A68B81BD
S11330009C81FC0124A12860FC0124A38B819C8168
S1133010FC0124A12F7EFC0124A38B819C81F8DE7A
S11330209A83898389819A818130F0E29F07F1F440
S11330308B819C81FC0125A136A180910401909192
S11330400501B901D7D480910401909105016ED591
S11330508B819C81FC0185A196A19C0121503109A1
S11330608B819C81FC0136A325A305C08B819C81A7
S1133070FC0116A215A289819A810F900F900F90DE
S11330800F90DF91CF9108950F931F93CF93DF9308
S113309000D000D0CDB7DEB79C838B8382E090E272
S11330A09A8389838B819C81FC0185A196A10097D9
S11330B009F4B8C026E832E080910401909105013A
S11330C0B90165D48B819C8161E05BDE9A8389833D
S11330D021E089819A818130F0E29F0709F020E0A4
S11330E0222309F482C08B819C8168EE73E0C2DDE7
S11330F09A83898321E089819A81813030E2930720
S113310009F020E0222309F470C02CE832E0809119
S1133110040190910501B9013AD480910201909182
S113312003016CDBDC01CB01EB81FC818C019D0193
S113313042E050E060E070E0CF01E4DE9A838983EE
S113314021E089819A818130E0E29E0709F020E044
S1133150222309F44AC080910201909103014EDBBD
S1133160DC01CB012B813C81F90127A130A541A5CC
S113317052A5820F931FA41FB51F2B813C81F90117
S113318087A390A7A1A7B2A78B819C8168EE73E067
S113319071DD9A83898321E089819A818130F0E20B
S11331A09F0709F020E0222301F122E932E0809117
S11331B0040190910501B901EAD38B819C8160E0FF
S11331C0E0DD9A8389838B819C81FC0124A12062A8
S11331D0FC0124A38B819C81FC0125A136A1809153
S11331E0040190910501B90105D489819A81813046
S11331F0F0E29F0769F08E3020EA920751F429E942
S113320032E08091040190910501B901C0D301C05D
S1133210000089819A81813030E2930719F08B8113
S11332209C8189D089819A810F900F900F900F9083
S1133230DF91CF911F910F910895CF93DF9300D029
S113324000D0CDB7DEB79C838B8382E090E29A8373
S113325089838B819C81FC0185A196A1009709F447
S113326048C08B819C81D4DD9A83898321E0898144
S11332709A818130F0E29F0709F020E02223D9F0FF
S11332808B819C81FC0185A196A19C01215031096F
S11332908B819C81FC0136A325A38B819C81FC013D
S11332A085A196A1009739F48B819C81FC0124A10E
S11332B02061FC0124A389819A818130F0E29F0777
S11332C069F08C3020E2920751F42DE932E08091CC
S11332D0040190910501B9015AD301C0000089810C
S11332E09A81813030E2930719F08B819C8123D03D
S11332F019C08B819C81FC0124A1277FFC0124A39C
S11333008B819C81FC0184A18071882319F08B81BD
S11333109C8129D08091000190910101BC018AE631
S113332092E0B1D889819A810F900F900F900F90FD
S1133330DF91CF910895CF93DF9300D0CDB7DEB75F
S11333409A83898389819A81FC0116A215A28981B5
S11333509A81FC0124A1277FFC0124A30F900F90E4
S1133360DF91CF9108950F931F93CF93DF9300D0F4
S113337000D0CDB7DEB79C838B8382E090E29A8342
S11333808983809102019091030162DA882309F410
S11333905FC026EA32E08091040190910501B901F1
S11333A0F6D28B819C8161E0ECDC9A83898321E0F5
S11333B089819A81813030E2930709F020E0222349
S11333C009F445C08B819C8168EE73E053DC9A83D9
S11333D0898321E089819A818130E0E29E0709F0A6
S11333E020E02223A1F18B819C81FC0187A190A57F
S11333F0A1A5B2A5EB81FC818C019D0141E050E0C7
S113340060E070E0CF017EDD9A83898321E08981C9
S11334109A818130F0E29F0709F020E02223B9F07D
S11334208B819C8168EE73E025DC9A83898321E09B
S113343089819A81813030E2930709F020E02223C8
S113344031F08B819C8160E09CDC9A83898304C089
S113345081E090E29A83898389819A810F900F9009
S11334600F900F90DF91CF911F910F910895CF93FB
S1133470DF9300D01F92CDB7DEB79A8389836B8325
S11334808B81282F217089819A812170FC0134A1BC
S11334903E7F232BFC0124A30F900F900F90DF910C
S11334A0CF910895CF93DF9300D0CDB7DEB79A8341
S11334B0898389819A81FC0184A1982F917081E08C
S11334C0992309F480E00F900F90DF91CF91089534
S11334D0CF93DF9300D0CDB7DEB79A8389838981F8
S11334E09A81FC0184A1982F947081E0992309F4B6
S11334F080E00F900F90DF91CF910895CF93DF93E9
S113350000D0CDB7DEB79A83898389819A81FC0183
S113351084A1982F987081E0992309F480E00F909A
S11335200F90DF91CF910895CF93DF9300D0CDB763
S1133530DEB79A83898389819A81FC0184A1982FBB
S1133540907281E0992309F480E00F900F90DF914D
S1133550CF910895CF93DF9300D0CDB7DEB79A8390
S1133560898389819A81FC0187A590A9A1A9B2A91F
S1133570BC01CD010F900F90DF91CF910895CF93AF
S1133580DF9300D000D0CDB7DEB79A8389837C83E4
S11335906B8389819A814A979A83898389819A81E5
S11335A02B813C81B9012EDB0F900F900F900F906F
S11335B0DF91CF910895CF93DF9300D0CDB7DEB7DD
S11335C09A83898389819A812EE332E0FC013183D5
S11335D020830F900F90DF91CF910895CF93DF93C5
S11335E000D0CDB7DEB79A83898389819A81E3DFDE
S11335F089819A8128EC31E0FC013183208389811F
S11336009A81FC0112820F900F90DF91CF9108955F
S1133610CF93DF9300D000D000D0CDB7DEB79C832A
S11336208B837E836D838B819C81FC0182818230BC
S113363031F08B819C81FC0182818823B1F48B81E0
S11336409C8121E0FC0122838D819E819A83898360
S113365089819A8160E00BDF8091000190910101E2
S1133660BC018AE692E00E94431226960FB6F894B3
S1133670DEBF0FBECDBFDF91CF910895CF93DF930F
S113368000D000D000D0CDB7DEB79C838B837E837F
S11336906D838B819C81FC018281813031F08B812F
S11336A09C81FC0182818823B1F48B819C8122E07E
S11336B0FC0122838D819E819A83898389819A81E9
S11336C061E0D5DE8091000190910101BC018AE6A0
S11336D092E00E94431226960FB6F894DEBF0FBE06
S11336E0CDBFDF91CF910895CF93DF9300D0CDB7B5
S11336F0DEB79A83898389819A8124EE31E0FC01C3
S11337003183208380E090E0009721F089819A81C1
S11337100E94EC2A0F900F90DF91CF910895CF93E0
S1133720DF9300D0CDB7DEB79A83898389819A81EC
S1133730DBDF89819A810E94EC2A0F900F90DF9140
S1133740CF910895CF93DF9300D0CDB7DEB79A839E
S1133750898389819A8124EE31E0FC0131832083BD
S11337600F900F90DF91CF910895CF93DF9300D006
S113377000D0CDB7DEB79A8389837C836B8389813C
S11337809A81E0DF89819A8128ED31E0FC0131835F
S1133790208389819A812B813C81FC01338322839C
S11337A00F900F900F900F90DF91CF910895CF93CA
S11337B0DF9300D0CDB7DEB79A83898389819A815C
S11337C028ED31E0FC013183208389819A818CDFEB
S11337D080E090E0009721F089819A810E94EC2A90
S11337E00F900F90DF91CF910895CF93DF9300D086
S11337F0CDB7DEB79A83898389819A81D8DF89819D
S11338009A810E94EC2A0F900F90DF91CF91089536
S1133810CF93DF9300D01F92CDB7DEB79A8389830D
S11338206B8389819A81FC01828193810E94AD0915
S1133830982F8B81982381E0992309F480E00F90DD
S11338400F900F90DF91CF910895CF93DF9300D025
S113385000D0CDB7DEB79A8389836B834C830F90F6
S11338600F900F900F90DF91CF910895CF93DF9336
S113387000D000D0CDB7DEB79A8389837C836B8375
S113388089819A812B813C81B9010E94F51089813B
S11338909A8120EF31E0FC013183208389819A8170
S11338A02FE331E0FC013583248389819A81FC0173
S11338B0178216820F900F900F900F90DF91CF9187
S11338C00895CF93DF9300D0CDB7DEB79A83898371
S11338D089819A8120EF31E0FC01318320830F90AC
S11338E00F90DF91CF910895CF93DF9300D000D054
S11338F01F92CDB7DEB79B838A837D836C8381E07F
S113390089838C819D81FC0180819181009769F478
S113391081E293E010DD20910001309101018C815E
S11339209D81FC0134832383198289810F900F9038
S11339300F900F900F90DF91CF910895CF93DF9365
S113394000D0CDB7DEB79A83898380910A01909124
S11339500B010E94800680910A0190910B0140E0C6
S113396060E00E94940689819A81FC01248135815A
S113397080910A0190910B01B9010E944D2B81E2C3
S113398093E012DB0F900F90DF91CF910895CF93C6
S1133990DF9300D000D0CDB7DEB79A8389837C83D0
S11339A06B8380910A0190910B0140E068E00E94D2
S11339B094062EEA32E080910A0190910B01B9013C
S11339C00E942C2B80910A0190910B0140E068E049
S11339D00E94940680910A0190910B012B813C81F5
S11339E0B9010E942C2B0F900F900F900F90DF9134
S11339F0CF910895CF93DF9300D000D0CDB7DEB739
S1133A009A8389837C836B8380910A0190910B0153
S1133A1040E064E00E94940626EB32E080910A01C3
S1133A2090910B01B9010E942C2B80910A01909175
S1133A300B0140E064E00E94940680910A01909199
S1133A400B012B813C814AE050E0B9010E94E22B3A
S1133A500F900F900F900F90DF91CF910895CF9317
S1133A60DF9300D01F92CDB7DEB79A8389836B832F
S1133A7089819A815BD080910A0190910B0141E088
S1133A8060E00E9494068B81882361F12BEB32E085
S1133A9080910A0190910B01B9010E942C2B809115
S1133AA00A0190910B0141E066E00E94940621EC2A
S1133AB032E080910A0190910B01B9010E942C2BF4
S1133AC080910A0190910B0141E066E00E94940606
S1133AD080910A0190910B014AE050E06B810E94B1
S1133AE0E72B09C026EC32E080910A0190910B018A
S1133AF0B9010E942C2B0F900F900F90DF91CF9162
S1133B000895CF93DF9300D0CDB7DEB79A8389832E
S1133B1089819A81FC0186859785A089B189BC0138
S1133B20CD010F900F90DF91CF910895CF93DF9344
S1133B3000D0CDB7DEB79A8389830E94962CDC012E
S1133B40CB0129813A81F90186879787A08BB18BB4
S1133B500F900F90DF91CF910895CF93DF9300D012
S1133B601F92CDB7DEB79A8389836B8389819A814B
S1133B702B81FC0124870F900F900F90DF91CF9140
S1133B800895EF92FF920F931F93CF93DF93CDB7D6
S1133B90DEB72C970FB6F894DEBF0FBECDBF9A8365
S1133BA089837C836B832D833E834F835887E98687
S1133BB0FA860B871C8789819A812B813C81B90104
S1133BC00E94F51089819A8128EF31E0FC0131834C
S1133BD020838D819E81AF81B88529813A81F90145
S1133BE086879787A08BB18B89859A85AB85BC85A1
S1133BF029813A81F901828B938BA48BB58B8981BE
S1133C009A81FC01168A178A108E118E89819A81F5
S1133C10FC01128E89819A8123E431E0FC01358311
S1133C20248389819A8127E431E0FC013783268348
S1133C3089819A812BE431E0FC01318720878981D5
S1133C409A812FE431E0FC01338722872C960FB64A
S1133C50F894DEBF0FBECDBFDF91CF911F910F91BE
S1133C60FF90EF900895CF93DF9300D0CDB7DEB7E8
S1133C709A83898389819A8128EF31E0FC01318319
S1133C8020830F900F90DF91CF910895CF93DF930E
S1133C9000D000D0CDB7DEB79B838A836C838A8142
S1133CA09B810E940310898363E571E084E794E0BB
S1133CB00E944D2B4AE050E06C8184E794E00E941E
S1133CC0E72B66E671E084E794E00E944D2B4AE01E
S1133CD050E0698184E794E00E94E72B8C818F3F58
S1133CE021F58981882F90E08530910581F0863017
S1133CF091051CF4009741F013C08930910551F0EF
S1133D008D30910551F00CC08DE089830DC083E0A6
S1133D1089830AC087E0898307C08BE0898304C054
S1133D20898181508983000026C08C81813019F5F6
S1133D308981882F90E08730910589F0883091053A
S1133D4024F48330910541F012C08B30910551F079
S1133D508D30910551F00BC085E089830CC089E05A
S1133D60898309C08DE0898306C0198204C08981D2
S1133D708F5F898300008A819B8141E069810E9471
S1133D80081265E771E084E794E00E944D2B4AE055
S1133D9050E0698184E794E00E94E72B84E794E093
S1133DA00E94552B0F900F900F900F90DF91CF91A1
S1133DB00895CF93DF93CDB7DEB76A970FB6F89423
S1133DC0DEBF0FBECDBF9C878B877E876D8781E06A
S1133DD089838D859E85FC0180819181009711F0F6
S1133DE08981C4C18B859C850E9403108A831C82AF
S1133DF01B828D859E85FC018281882F90E0823014
S1133E00910509F495C08330910544F4009709F4B1
S1133E1011C18130910509F412C1A7C18330910504
S1133E2029F08430910509F40FC19FC18A8184303F
S1133E3038F58D859E85FC0180819181009701F57F
S1133E4088E19CEF9C838B830AC08B819C812AE050
S1133E5030E0B9010E94843ECB019C838B839A811C
S1133E608FEF890F8A8381E0992309F480E0882306
S1133E7061F72B813C818B859C85B901CBD157C0DF
S1133E808A81853018F18A81883000F58CE99FEFAA
S1133E909C838B830AC08B819C812AE030E0B9012A
S1133EA00E94843ECB019C838B839A818FEF890F80
S1133EB08A8381E0953009F480E0882361F72B81BF
S1133EC03C818B859C85B90172D231C08A8189304D
S1133ED018F18A818C3000F58CE99FEF9C838B83E9
S1133EE00AC08B819C812AE030E0B9010E94843EA3
S1133EF0CB019C838B839A818FEF890F8A8381E026
S1133F00993009F480E0882361F72B813C818B850B
S1133F109C85B90119D30BC08A818D3040F08A8108
S1133F208E3028F48B859C856FEF7FEFDDD31DC128
S1133F308A81843038F58D859E85FC01808191814C
S1133F40009701F588EE93E09C838B830AC08B81F4
S1133F509C812AE030E0B9010E94843ECB019C831D
S1133F608B839A818FEF890F8A8381E0992309F4E7
S1133F7080E0882361F72B813C818B859C85B90186
S1133F8049D157C08A81853018F18A81883000F57B
S1133F9084E690E09C838B830AC08B819C812AE019
S1133FA030E0B9010E94843ECB019C838B839A81CB
S1133FB08FEF890F8A8381E0953009F480E08823AC
S1133FC061F72B813C818B859C85B901F0D131C08F
S1133FD08A81893018F18A818C3000F584E690E07A
S1133FE09C838B830AC08B819C812AE030E0B901D9
S1133FF00E94843ECB019C838B839A818FEF890F2F
S11340008A8381E0993009F480E0882361F72B8169
S11340103C818B859C85B90197D20BC08A818D30F8
S113402040F08A818E3028F48B859C8561E070E0B5
S11340305BD39BC08B859C856FEF28DE96C08B85F8
S11340409C8561E023DE91C08D859E85FC01808185
S11340509181009709F088C080E090E00E94043FBD
S11340609E838D838D819E819C0140E050E08B85F1
S11340709C85FC0186859785A089B1892817390715
S11340804A075B0761F08B859C85FC0186859785D3
S1134090A089B189BC0180E090E00E94173F82E0D2
S11340A090E00E94043F98878F838F8198859C01BC
S11340B040E050E08B859C85FC0186899789A08D22
S11340C0B18D281739074A075B0761F08B859C85FA
S11340D0FC0186899789A08DB18DBC0182E090E0B6
S11340E00E94173F84E090E00E94FC3E8987898506
S11340F0282F30E040E050E08B859C85FC018289CC
S11341009389A489B589281739074A075B0761F0A1
S11341108B859C85FC0182899389A489B589682F44
S113412084E090E00E94093F85E090E00E94FC3E1C
S11341308A878B859C85FC01828D982F8A859817A8
S113414049F08B859C85FC01828D682F85E090E089
S11341500E94093F20910001309101018D859E85C7
S1134160FC01348323831982000089816A960FB687
S1134170F894DEBF0FBECDBFDF91CF910895CF93EA
S1134180DF9300D0CDB7DEB79A83898380910A018B
S113419090910B010E94800689819A8140E060E041
S11341A00E94261189819A8141E065E00E942611CE
S11341B089819A8142E069E00E94261189819A816D
S11341C043E06DE00E94261189819A81FC011486E6
S11341D089819A8160E070E01DD089819A8160E0D4
S11341E070E0E5D089819A8160E070E0ADD1898189
S11341F09A8160E070E078D289819A8160E0ADDCD8
S113420089819A8161E00E94D9110F900F90DF910A
S1134210CF910895CF93DF93CDB7DEB72E970FB626
S1134220F894DEBF0FBECDBF98878F837A876987E6
S11342308F819885FC012685378540895189898538
S11342409A85AA2797FDA095BA2F820F931FA41FC2
S1134250B51F2F813885F90186879787A08BB18B8D
S11342608F819885FC0186859785A089B189181668
S113427019061A061B065CF02F81388581E090E050
S1134280A0E0B0E0F90186879787A08BB18B8F817E
S11342909885FC0186859785A089B1898031F7E2EC
S11342A09F07A105B1055CF02F8138858FE097E267
S11342B0A0E0B0E0F90186879787A08BB18B1982C3
S11342C08F819885FC0186859785A089B1898A8329
S11342D09B83AC83BD8315C08A819B81AC81BD81E6
S11342E02AE030E040E050E0BC01CD010E94973E5E
S11342F0DA01C9018A839B83AC83BD8389818F5F83
S113430089838A819B81AC81BD810097A105B10518
S113431019F780910A0190910B0141E060E00E943D
S113432094061E820CC02FEC32E080910A01909119
S11343300B01B9010E942C2B8E818F5F8E838E819D
S1134340282F30E08981882F90E044E050E0BA01C2
S1134350681B790BCB01281739072CF38F819885BB
S1134360FC0186859785A089B18920910A01309145
S11343700B01F9012AE030E0AC01BD01CF010E943C
S1134380042C8F8198850E940310282F80910A01A4
S113439090910B0141E0622F0E9494062E960FB675
S11343A0F894DEBF0FBECDBFDF91CF910895CF93B8
S11343B0DF93CDB7DEB72E970FB6F894DEBF0FBEEE
S11343C0CDBF98878F837A8769878F819885FC0111
S11343D0228933894489558989859A85AA2797FD35
S11343E0A095BA2F820F931FA41FB51F2F81388564
S11343F0F901828B938BA48BB58B8F819885FC01FB
S113440082899389A489B589181619061A061B0688
S11344105CF02F81388581E090E0A0E0B0E0F90104
S1134420828B938BA48BB58B8F819885FC018289B9
S11344309389A489B589883EF3E09F07A105B10556
S11344405CF02F81388587EE93E0A0E0B0E0F901BD
S1134450828B938BA48BB58B19828F819885FC01F9
S113446082899389A489B5898A839B83AC83BD831C
S113447015C08A819B81AC81BD812AE030E040E097
S113448050E0BC01CD010E94973EDA01C9018A8344
S11344909B83AC83BD8389818F5F89838A819B8160
S11344A0AC81BD810097A105B10519F780910A017E
S11344B090910B0141E065E00E9494061E820CC0BD
S11344C021ED32E080910A0190910B01B9010E9423
S11344D02C2B8E818F5F8E838E81282F30E08981F3
S11344E0882F90E043E050E0BA01681B790BCB01C0
S11344F0281739072CF38F819885FC0182899389C9
S1134500A489B58920910A0130910B01F9012AE0AF
S113451030E0AC01BD01CF010E94042C8F8198854D
S11345200E940310282F80910A0190910B0141E011
S1134530622F0E9494062E960FB6F894DEBF0FBE2B
S1134540CDBFDF91CF910895CF93DF93CDB7DEB781
S11345502E970FB6F894DEBF0FBECDBF98878F831A
S11345607A8769878F819885FC0126893789408DF0
S1134570518D89859A85AA2797FDA095BA2F820F18
S1134580931FA41FB51F2F813885F901868B978B44
S1134590A08FB18F8F819885FC0186899789A08D22
S11345A0B18DBB233CF48F819885FC01168A178A50
S11345B0108E118E8F819885FC0186899789A08D34
S11345C0B18D883EF3E09F07A105B1055CF02F8112
S11345D0388587EE93E0A0E0B0E0F901868B978BF5
S11345E0A08FB18F19828F819885FC018689978964
S11345F0A08DB18D8A839B83AC83BD8315C08A81D2
S11346009B81AC81BD812AE030E040E050E0BC01F8
S1134610CD010E94973EDA01C9018A839B83AC8352
S1134620BD8389818F5F89838A819B81AC81BD81B0
S11346300097A105B10519F780910A0190910B012A
S113464041E069E00E9494061E820BC023ED32E033
S113465080910A0190910B01B901FED78E818F5F81
S11346608E838E81282F30E08981882F90E043E06B
S113467050E0BA01681B790BCB012817390734F3D2
S11346808F819885FC0186899789A08DB18D0097CB
S1134690A105B10599F08F819885FC0186899789D8
S11346A0A08DB18D20910A0130910B01F9012AE00E
S11346B030E0AC01BD01CF010E94042C8F819885AC
S11346C00E940310282F80910A0190910B0141E070
S11346D0622F0E9494062E960FB6F894DEBF0FBE8A
S11346E0CDBFDF91CF910895CF93DF9300D000D059
S11346F0CDB7DEB79A8389837C836B8380910A016B
S113470090910B0141E06DE00E94940625ED32E0AA
S113471080910A0190910B01B9019ED780910A0101
S113472090910B0141E06DE00E9494068B819C8185
S1134730009759F089819A81FC01928D81E0292F9B
S1134740282789819A81FC01228F89819A81FC0121
S1134750828D882319F089ED92E002C08DED92E0FC
S113476020910A0130910B01BC01C90175D78981DF
S11347709A810E940310282F80910A0190910B01C5
S113478041E0622F0E9494060F900F900F900F90BB
S1134790DF91CF910895CF93DF93CDB7DEB7109219
S11347A0B40381E08093B6031092B70382E161E021
S11347B00E949D2D83E161E00E949D2D89EB90E094
S11347C029EB30E0F90120812E7FFC01208389EB65
S11347D090E029EB30E0F90120812D7FFC0120835A
S11347E088EB90E028E4FC0120838CEB90E025E446
S11347F0FC012083DF91CF910895CF93DF9300D004
S113480000D000D0CDB7DEB78A837C836B834D8321
S11348102E838D81813210F080E062C001C00000DF
S11348208091B4038823D9F781E08093B4038E8107
S11348308093B6038FEF809321041092DC038D8163
S113484081508093DD0381E08093B5038A81882FB2
S113485090E0880F991F982F8091B503892B80933E
S1134860B5038091B703813071F41092B7038BEBD9
S113487090E02091B503FC0120838CEB90E025ECC3
S1134880FC01208307C08CEB90E025EEFC01208323
S113489001C000008091B4038130D9F39091DC030E
S11348A08D81981718F48091DC038D83198213C0CD
S11348B08981882F90E02B813C81820F931F29816D
S11348C0222F30E024543C4FF9012081FC01208345
S11348D089818F5F898399818D81981748F38D81B0
S11348E026960FB6F894DEBF0FBECDBFDF91CF91F1
S11348F008950F93CF93DF93CDB7DEB727970FB605
S1134900F894DEBF0FBECDBF8A837C836B834D8357
S11349102E830F838D81813210F081E06DC001C040
S113492000008091B4038823D9F782E08093B40314
S11349308F818093B6038FEF809321041092DC0360
S11349408D818093DD03198213C08981882F90E0C3
S11349502981222F30E04B815C81240F351FF9011E
S1134960208184549C4FFC01208389818F5F89833B
S113497099818D81981748F31092B5038A81882F05
S113498090E0880F991F982F8091B503892B80930D
S1134990B5038091B703813071F41092B7038BEBA8
S11349A090E02091B503FC0120838CEB90E025EC92
S11349B0FC01208307C08CEB90E025EEFC012083F2
S11349C001C000008E81882321F08091B4038230DD
S11349D0C1F3809121048F3F11F480E00DC08091D8
S11349E02104803211F482E007C0809121048033D5
S11349F011F483E001C084E027960FB6F894DEBF7B
S1134A000FBECDBFDF91CF910F910895CF93DF9368
S1134A1000D000D0CDB7DEB79B838A836C838C81B2
S1134A20813210F081E023C08091B403843011F00E
S1134A3082E01DC08C818093FF03198213C0898199
S1134A40882F90E02981222F30E04A815B81240F56
S1134A50351FF901208182529C4FFC0120838981FA
S1134A608F5F898399818C81981748F380E00F9038
S1134A700F900F900F90DF91CF910895CF93DF9314
S1134A801F92CDB7DEB789838981882331F08CEBFF
S1134A9090E025ECFC01208305C08CEB90E025E838
S1134AA0FC0120830F90DF91CF910895CF93DF9382
S1134AB0CDB7DEB78CEB90E025EDFC01208301C07F
S1134AC000008CEB90E0FC018081882F90E08071E5
S1134AD099270097A9F71092B403DF91CF91089515
S1134AE0CF93DF93CDB7DEB78CEB90E025ECFC01E0
S1134AF020831092B403DF91CF9108951F920F92F7
S1134B0000905F000F9211242F933F934F935F9374
S1134B106F937F938F939F93AF93BF93EF93FF9381
S1134B20CF93DF93CDB7DEB789EB90E0FC018081B2
S1134B30882F90E0887F9927AA2797FDA095BA2F00
S1134B4040E050E028EF30E0841B950B281739072C
S1134B5008F405C18C5C9F4FFC010C94B93E8BEBAF
S1134B6090E02091B503FC01208381E087DFF7C04A
S1134B709091DC038091DD03981798F48BEB90E01F
S1134B802091DC0331E0320F3093DC03222F30E03C
S1134B9024543C4FF9012081FC01208381E06EDF25
S1134BA011C08091B603882311F080DF0BC081E02F
S1134BB08093B7038CEB90E024EAFC0120831092ED
S1134BC0B403CDC0CCC080E2809321046FDFC7C0A2
S1134BD080E3809321046ADFC2C088E380932104C8
S1134BE07FDFBDC08091DC0391E0980F9093DC03DC
S1134BF0882F90E02BEB30E0F901208184549C4F06
S1134C00FC0120839091DC038091DD03981718F454
S1134C1081E034DFA4C080E031DFA1C08091DC03F7
S1134C2091E0980F9093DC03882F90E02BEB30E019
S1134C30F901208184549C4FFC0120838091B603A8
S1134C40882311F033DF8BC081E08093B7038CEBB2
S1134C5090E024EAFC0120831092B40380C026DF94
S1134C607EC083E08093B4031092200481E006DFC9
S1134C7076C080912004803298F48091200491E0E1
S1134C80980F90932004882F90E02BEB30E0F901EB
S1134C90208180509C4FFC01208381E0EFDE5FC0C7
S1134CA080E0ECDE5CC080912004803240F480918E
S1134CB02004882F90E080509C4FFC011082F6DE87
S1134CC02091BA033091BB0380912004882F90E097
S1134CD0BC0180E094E0F90109951092200400DF02
S1134CE03EC080E0CBDE3BC084E08093B4031092EE
S1134CF0FE031092FF038091B8039091B903FC0165
S1134D0009958091FF03882329F481E08093FF03B0
S1134D101092DE038BEB90E02091FE0331E0320F22
S1134D203093FE03222F30E022523C4FF9012081C0
S1134D30FC0120839091FE038091FF03981718F4DF
S1134D4081E09CDE0CC080E099DE09C081E096DE43
S1134D501092B40304C010922104A8DE0000DF9175
S1134D60CF91FF91EF91BF91AF919F918F917F91DF
S1134D706F915F914F913F912F910F9000925F003F
S1134D800F901F901895CF93DF9300D000D0CDB72C
S1134D90DEB79A8389837C836B8389819A812B8193
S1134DA03C81FC01338322830F900F900F900F906E
S1134DB0DF91CF910895CF93DF9300D0CDB7DEB7C5
S1134DC09A83898389819A810E94B20489819A8114
S1134DD020E132E0FC013183208329813A8188EE8D
S1134DE093E0A0E0B0E0F90184839583A683B783C0
S1134DF00F900F90DF91CF910895CF93DF9300D060
S1134E00CDB7DEB79A83898389819A81D4DF89817A
S1134E109A8120E032E0FC01318320830F900F90CF
S1134E20DF91CF910895CF93DF9300D0CDB7DEB754
S1134E309A83898310924204109243041092650469
S1134E4010926604A8DC0F900F90DF91CF91089523
S1134E50CF93DF9300D000D000D0CDB7DEB79B83D3
S1134E608A836C834D832E838D81813210F080E29E
S1134E708D832E814D8162E274E08C81BEDC898356
S1134E8010924204898180934304898126960FB647
S1134E90F894DEBF0FBECDBFDF91CF910895CF93BD
S1134EA0DF9300D000D000D0CDB7DEB79A838983DA
S1134EB07C836B835E834D834D813B8189819A81A1
S1134EC021E0632FC5DF26960FB6F894DEBF0FBE30
S1134ED0CDBFDF91CF910895CF93DF9300D01F9280
S1134EE0CDB7DEB79A8389836B8381E080936704AF
S1134EF08B818093440410926504109266040F9091
S1134F000F900F90DF91CF910895CF93DF9300D04E
S1134F1000D0CDB7DEB79A8389837C836B832B81E2
S1134F2089819A81622FD8DF0F900F900F900F9094
S1134F30DF91CF9108950F93CF93DF9300D000D0EA
S1134F40CDB7DEB79B838A836C839091660480918E
S1134F5044040C8121E0492F65E474E0CADC8983B0
S1134F6010926504109266041092670489810F9070
S1134F700F900F900F90DF91CF910F910895CF93E1
S1134F80DF9300D0CDB7DEB79A83898389819A8174
S1134F9061E0D1DF0F900F90DF91CF910895CF930F
S1134FA0DF9300D01F92CDB7DEB79A8389836B83DA
S1134FB0809167048823F9F080916604803240F080
S1134FC089819A8161E070E0DEDE80E090E019C0C2
S1134FD080916504882F90E02B818B5B9B4FFC01B3
S1134FE02083809165048F5F8093650480916504BC
S1134FF08093660404C0CE01039661E007DD81E07E
S113500090E00F900F900F90DF91CF910895CF9380
S1135010DF93CDB7DEB728970FB6F894DEBF0FBE87
S1135020CDBF9C838B837E836D8358874F83809110
S11350306704882329F11A8219821AC08B819C8102
S1135040FC0180819181FC01208131814D815E814F
S113505089819A81840F951FFC0140818B819C81F9
S1135060642FF901099589819A8101969A8389832C
S113507029813A818F81988528173907F8F205C06C
S11350802F818D819E81622FC1DC8F819885289626
S11350900FB6F894DEBF0FBECDBFDF91CF91089558
S11350A0CF93DF9300D0CDB7DEB79A838983809105
S11350B04304282F30E080914204882F90E0A90116
S11350C0481B590BCA010F900F90DF91CF9108959F
S11350D0CF93DF9300D000D0CDB7DEB79C838B8312
S11350E08FEF9FEF9A8389839091420480914304C8
S11350F0981788F480914204882F90E08E5D9B4F2E
S1135100FC018081882F90E09A83898380914204F6
S11351108F5F8093420489819A810F900F900F9042
S11351200F90DF91CF910895CF93DF9300D000D0FB
S1135130CDB7DEB79C838B838FEF9FEF9A838983F0
S11351409091420480914304981760F48091420442
S1135150882F90E08E5D9B4FFC018081882F90E02A
S11351609A83898389819A810F900F900F900F9071
S1135170DF91CF910895CF93DF9300D0CDB7DEB701
S11351809A8389830F900F90DF91CF910895CF93E5
S1135190DF9300D000D0CDB7DEB79A8389837C83B8
S11351A06B8389819A818130910549F48B819C813B
S11351B08F3F2FEF920719F488E694E01EDE0F90DC
S11351C00F900F900F90DF91CF910895CF93DF93BD
S11351D0CDB7DEB76FEF7FEF81E090E0D8DFDF91EE
S11351E0CF910895FC0184859585FC01E05CFF4F17
S11351F020813181FC01EE5BFF4F80819181281B6E
S1135200390B2F733327C9010895FC0184859585D3
S1135210FC01E05CFF4F40815181FC01EE5BFF4FDC
S1135220208131814217530741F00190F081E02D34
S1135230E80FF91F208130E002C02FEF3FEFC901D2
S11352400895FC0184859585FC01E05CFF4F408155
S11352505181FC01EE5BFF4F2081318142175307DE
S113526081F0A081B181A80FB91F8C912081318177
S11352702F5F3F4F2F73332731832083282F30E054
S113528002C02FEF3FEFC9010895FC0181A18823DB
S113529029F0A489B5898C9186FFFBCF11A20895CA
S11352A0CF93DF93FC0126853785D901A05CBF4FDE
S11352B08D919C91119701968F739927E901CE5B8B
S11352C0DF4F4881598184179507D9F30D90BC911C
S11352D0A02DA20FB31F6C93A685B785A05CBF4F0A
S11352E011969C938E93A689B7892C9181E090E0C6
S11352F0078C02C0880F991F0A94E2F7282B2C937D
S113530081E081A30488F589E02D80818064808315
S113531081E090E0DF91CF91089508951F920F925C
S11353200FB60F9211242F933F934F938F939F9314
S1135330EF93FF938091C00082FD1CC04091C60092
S113534080911A0590911B0501968F7399272091DE
S11353501C0530911D058217930771F0E0911A0521
S1135360F0911B05E652FB4F408390931B058093FD
S11353701A0502C08091C600FF91EF919F918F9111
S11353804F913F912F910F900FBE0F901F90189542
S113539084E794E027DF892B09F0BFCF08951F929B
S11353A00F920FB60F9211242F933F938F939F93D5
S11353B0EF93FF932091D6043091D7048091D804C1
S11353C09091D9042817390731F48091C1008F7D59
S11353D08093C10014C0E091D804F091D904EA5636
S11353E0FB4F20818091D8049091D90401968F734A
S11353F099279093D9048093D8042093C600FF91F1
S1135400EF919F918F913F912F910F900FBE0F902D
S11354101F901895CF92DF92EF92FF92CF93DF9374
S1135420EC016A017B01411581EE580761057105A4
S1135430F9F0EC89FD8981E090E008A002C0880FB2
S1135440991F0A94E2F7808360E079E08DE390E0AD
S1135450A70196010E94973E215031094109510943
S11354605695479537952795211580E1380798F08B
S1135470EC89FD89108260E874E88EE190E0A70170
S113548096010E94973E21503109410951095695D0
S1135490479537952795E889F9893083EA89FB8907
S11354A0208319A2EE89FF89408181E090E09C016C
S11354B00C8C02C0220F331F0A94E2F7422B408364
S11354C0EE89FF8940819C010D8C02C0220F331F9D
S11354D00A94E2F7422B4083EE89FF8940819C01C4
S11354E00E8C02C0220F331F0A94E2F7422B408332
S11354F0EE89FF8920810F8C02C0880F991F0A94BE
S1135500E2F7809582238083DF91CF91FF90EF9023
S1135510DF90CF900895109277041092760488EE6D
S113552093E0A0E0B0E08093780490937904A09392
S11355307A04B0937B0480E292E0909375048093A4
S113554074048AED94E0909381048093800486E946
S113555094E0909383048093820485EC90E090938C
S113556085048093840484EC90E090938704809372
S1135570860480EC90E0909389048093880481EC05
S113558090E090938B0480938A0482EC90E0909353
S11355908D0480938C0486EC90E090938F04809328
S11355A08E0484E08093900483E08093910487E0E8
S11355B08093920485E08093930481E08093940423
S11355C008951ED20E94C50BC8ECD9E20E94660C55
S11355D02097E1F3DDDEFACFE6C20895CF92DF92A1
S11355E0EF92FF920F931F93CF93DF936C01EB0124
S11355F07A01E60EF71E00E010E00BC06991D601B7
S1135600ED91FC910190F081E02DC6010995080F00
S1135610191FCE15DF0591F7C801DF91CF911F91B6
S11356200F91FF90EF90DF90CF9008956115710571
S113563081F0DB010D900020E9F7AD0141505109E3
S1135640461B570BDC01ED91FC910280F381E02DA8
S1135650099480E090E00895EF92FF920F931F93D6
S1135660CF93DF937C01EB0100E010E0FE01219673
S11356706491662351F0F701A081B181ED91FC9111
S1135680C7010995080F191FF1CFC801DF91CF9108
S11356901F910F91FF90EF900895C8CFDC01ED9119
S11356A0FC910190F081E02D09940F931F93CF9307
S11356B0DF93EC016DE0F2DF8C016AE0CE01EEDFF6
S11356C09C01200F311FC901DF91CF911F910F91D0
S11356D008950F931F93CF93DF93EC01A7DF8C0101
S11356E0CE01E3DF9801280F391FC901DF91CF9163
S11356F01F910F9108954F925F926F927F929F92A4
S1135700AF92BF92CF92DF92EF92FF920F931F93CB
S1135710CF93DF93CDB7DEB7A1970FB6F894DEBF72
S11357200FBECDBF5C016A017B01922E19A281E0FC
S1135730821710F08AE0982E8E010F5D1F4F492CBE
S1135740512C612C712CC701B601A30192010E9456
S1135750973E8C2D929E80191124015011098A3094
S113576010F4805D01C0895CF801808369017A01CD
S1135770C114D104E104F10431F7B801C50156DFC5
S1135780A1960FB6F894DEBF0FBECDBFDF91CF91C7
S11357901F910F91FF90EF90DF90CF90BF90AF904B
S11357A09F907F906F905F904F90089521153105E1
S11357B041F4DC01ED91FC910190F081E02D642F26
S11357C0099499CF9A01AB0160E070E0EFCF9A01A0
S11357D0462F50E060E070E0E9CF0F931F93CF9322
S11357E0DF93EC019A01462F50E060E070E0DEDFC9
S11357F08C01CE015ADF9801280F391FC901DF91AE
S1135800CF911F910F910895CF92DF92EF92FF9263
S11358100F931F93CF93DF93EC016A017B01211552
S1135820310579F4E881F9810190F081E02D642F4C
S1135830DF91CF911F910F91FF90EF90DF90CF9068
S113584009942A30310519F477FD0DC02AE0B70117
S1135850A601CE01DF91CF911F910F91FF90EF90A0
S1135860DF90CF9048CF6DE219DF8C014427552794
S1135870BA014C195D096E097F092AE0CE013BDFAC
S1135880080F191FC801DF91CF911F910F91FF904D
S1135890EF90DF90CF9008951F920F920FB60F9262
S11358A011242F933F938F939F93AF93BF93809132
S11358B01E0590911F05A0912005B09121053091FE
S11358C02605232F2D5F2D3720F40196A11DB11D30
S11358D005C0232F2A570296A11DB11D209326052A
S11358E080931E0590931F05A0932005B093210576
S11358F08091220590912305A0912405B09125055E
S11359000196A11DB11D8093220590932305A093B8
S11359102405B0932505BF91AF919F918F913F913D
S11359202F910F900FBE0F901F9018950F931F93F8
S11359308FB7F89400911E0510911F052091200542
S1135940309121058FBFB801C9011F910F910895AE
S11359500F931F939FB7F89400912205109123058C
S1135960209124053091250586B5A89B06C08F3F5C
S113597021F00F5F1F4F2F4F3F4F9FBF322F212F1B
S1135980102F0027080F111D211D311D42E0000FAB
S1135990111F221F331F4A95D1F7B801C9011F9166
S11359A00F910895CF92DF92EF92FF92CF93DF93FE
S11359B06B017C01CDDFEB010DC0CADF6C1B7D0BDD
S11359C0683E734038F081E0C81AD108E108F10854
S11359D0C851DC4FC114D104E104F10471F7DF9123
S11359E0CF91FF90EF90DF90CF900895019739F019
S11359F0880F991F880F991F02970197F1F708954F
S1135A00789484B5826084BD84B5816084BD85B595
S1135A10826085BD85B5816085BDEEE6F0E080815C
S1135A2081608083E1E8F0E010828081826080837D
S1135A30808181608083E0E8F0E080818160808300
S1135A40E1EBF0E0808184608083E0EBF0E0808132
S1135A5081608083EAE7F0E08081846080838081D4
S1135A60826080838081816080838081806880837C
S1135A701092C1000895833069F028F48130A1F0B8
S1135A80823011F514C08630B1F08730C1F0843013
S1135A90D9F404C0809180008F7703C08091800086
S1135AA08F7D80938000089584B58F7702C084B57C
S1135AB08F7D84BD08958091B0008F7703C080915D
S1135AC0B0008F7D8093B0000895CF93DF9390E072
S1135AD0FC01EC50FD4F4491FC01E85FFC4F8491C4
S1135AE0882341F190E0880F991FFC01EA5DFC4F87
S1135AF025913491D901845E9C4FFC018591949148
S1135B00C82FD92F9FB7F8948C91611106C0409586
S1135B1084238C938881842308C0623041F4242F29
S1135B20209582238C938881842B888302C0842BC4
S1135B308C939FBFDF91CF9108950F931F93CF93C1
S1135B40DF931F92CDB7DEB7282F30E0F901E05282
S1135B50FD4F8491F901EC50FD4F1491F901E85F78
S1135B60FC4F04910023C9F0882319F0698383DF73
S1135B706981E02FF0E0EE0FFF1FE45EFC4F85919A
S1135B809491DC019FB7F8948C91611103C0109536
S1135B90812301C0812B8C939FBF0F90DF91CF9104
S1135BA01F910F910895EF92FF920F931F93CF933C
S1135BB0DF93009709F48FC0DC01129713961C92AF
S1135BC01E921297E0902D05F0902E05E114F10439
S1135BD089F42D913C911197280F391F809116015A
S1135BE0909117018217930789F5B0931701A09339
S1135BF0160171C0E70120E030E001C0EA01CA17D4
S1135C00DB0738F44A815B819E0141155105B1F7E8
S1135C1022C0BC0162507109FB01D383C28300819D
S1135C201181AC01400F511F4C175D0761F448818D
S1135C305981400F511F4E5F5F4F518340834A810A
S1135C405B81538342832115310529F4B0932E05DA
S1135C50A0932D0540C0F901B383A283E9016991A2
S1135C607991C60FD71FAC17BD0779F4DC015E919B
S1135C704E91460F571F4E5F5F4F518340831296DC
S1135C808D919C91139793838283A0E0B0E002C02E
S1135C90D7017C01F701828193810097C9F7C7017D
S1135CA0029620813181820F931F20911601309139
S1135CB017012817390779F4109729F410922E0543
S1135CC010922D0504C013961C921E921297F09206
S1135CD01701E0921601DF91CF911F910F91FF9070
