S02600004E696B466F637573537461636B41646146727569744C6364536869656C642E737265636A
S1130000E7C000000DC100000BC1000009C10000E1
S113001007C1000005C1000003C1000001C10000C8
S1130020FFC00000FDC00000FBC00000F9C00000DC
S1130030F7C00000F5C00000F3C00000F1C00000EC
S11300400C945D18EDC000000C949F150C94E01501
S1130050E7C00000E5C00000E3C00000E1C000000C
S11300600C940B13DDC000005553422064696420D6
S11300706E6F742073746172742E00526573746FA2
S11300807265004361726446756C6C00496E66006B
S11300904C56206F666600466F637573004C56209D
S11300A06F6E004361707475726500436170204F18
S11300B04B004E6F74206E696B6F6E002020202001
S11300C02020202000202020200044656C6179003D
S11300D0202020200020202020202020004E6F00FF
S11300E059657300202020003000300030000000EB
S11300F000070002010000030406000000000000E5
S113010000000102040810204080010204081020AD
S11301100102040810200404040404040404020278
S1130120020202020303030303030000000025008C
S113013028002B0000000000240027002A0042753C
S11301406666657220706F696E74657220697320CB
S11301504E554C4C210D0A000D0A00285553423AC5
S11301603A496E5472616E73666572292065702017
S113017072657175657374656420000D0A002855F5
S113018053423A3A496E5472616E7366657229201D
S113019061646472207265717565737465642000AE
S11301A00D0A00285553423A3A496E5472616E73EF
S11301B066657229205365744164647265737320A3
S11301C04661696C65642000900700159C16F7076A
S11301D011241FBECFEFD8E0DEBFCDBF12E0A0E0F8
S11301E0B1E0E8E7F6E502C005900D92A233B1074D
S11301F0D9F724E0A2E3B2E001C01D92A73FB20701
S1130200E1F711E0CEECD1E004C02297FE010E9498
S1130210E62AC83CD107C9F70E94F2160C94302B89
S1130220EFCE682F8AEE93E00C948C14CF93DF9377
S1130230EC01683008F067E068838AEE93E00E947E
S1130240CA146881606270E08AEE93E00E94EB1445
S113025080E0E7DF8FEFE5DF8AEE93E00E94FE1493
S11302606881606270E08AEE93E00E94EB1481E0A2
S1130270D8DF8FEFD6DF8AEE93E0DF91CF910C9435
S1130280FE1460E0D3CFCF93DF93D62FC72FFC01AA
S113029090819062692F70E08AEE93E00E94EB14E3
S11302A082E1BFDF8D2FBDDF8C2FBBDF8AEE93E0B1
S11302B0DF91CF910C94FE14FF920F931F93CF9371
S11302C0DF93EC01162FF42E603108F042C0683041
S11302D018F018500DE001C00CE06881606270E015
S11302E08AEE93E00E94EB14802F9BDF8AEE93E06A
S11302F00E94FE146881606270E041E050E08AEE82
S113030093E00E94DF148AEE93E00E943D1491E092
S113031021E030E001C0220F1A95EAF7122FF912FA
S113032002C0182B02C0109518236881606270E027
S11303308AEE93E00E94EB14802F73DF812F71DF2C
S11303408AEE93E0DF91CF911F910F91FF900C946F
S1130350FE14DF91CF911F910F91FF9008950F9399
S11303601F93CF93DF93EC01162F603140F5683073
S113037018F0185003E101C002E16881606270E086
S11303808AEE93E00E94EB14802F4BDF8AEE93E019
S11303900E94FE146881606270E041E050E08AEEE1
S11303A093E00E94DF148AEE93E00E943D149927A3
S11303B002C0959587951A95E2F7817001C080E097
S11303C0DF91CF911F910F910895CF93DF93EC01AB
S11303D06881606270E08AEE93E00E94EB1482E12F
S11303E020DF8AEE93E00E94FE146881606270E070
S11303F042E050E08AEE93E00E94DF148AEE93E03C
S11304000E943D14C82F8AEE93E00E943D14982F59
S113041088278C2BDF91CF910895FF920F931F9320
S1130420CF93DF93EC01162FF42E603108F041C016
S1130430683018F0185001E001C000E06881606283
S113044070E08AEE93E00E94EB14802FEADE8AEEDD
S113045093E00E94FE146881606270E041E050E025
S11304608AEE93E00E94DF148AEE93E00E943D142A
S113047021E030E001C0220F1A95EAF7122FF110A3
S113048002C0182B02C0109518236881606270E0C6
S11304908AEE93E00E94EB14802FC3DE812FC1DE2D
S11304A08AEE93E0DF91CF911F910F91FF900C940E
S11304B0FE14DF91CF911F910F91FF900895CF9279
S11304C0DF92FF920F931F93CF93DF931F92CDB7C9
S11304D0DEB76C01162FF42E603108F04CC0683082
S11304E020F0185025E103E102C024E102E1F60105
S11304F06081606270E08AEE93E029830E94EB14CD
S11305002981822F8EDE8AEE93E00E94FE14F6018A
S11305106081606270E041E050E08AEE93E00E9406
S1130520DF148AEE93E00E943D14F1E021E030E014
S113053001C0220F1A95EAF7122FFF1202C0182BDE
S113054002C010951823F6016081606270E08AEEA3
S113055093E00E94EB14802F64DE812F62DE8AEE2A
S113056093E00F90DF91CF911F910F91FF90DF9057
S1130570CF900C94FE140F90DF91CF911F910F91A7
S1130580FF90DF90CF900895FC011382128286E2DF
S113059091E091838083128E148A8FE084838EE0AD
S11305A085838DE086838CE087838BE080878AE077
S11305B0818789E08287178681E0808B82E0818B46
S11305C083E0828B84E0838B0895262FFC01328D97
S11305D03F3F11F04B9673CF642F822F0C94AE19CA
S11305E00F931F93CF93DF93062FEC016B9611E0CB
S11305F062FB442740F9412768E0CE0160DF01FB3C
S1130600442740F9412767E0CE0159DF402F41706C
S1130610412766E0CE01DF91CF911F910F914FCF1B
S1130620262FFC01328D3F3F11F04B96F6CE642FFE
S1130630822F0C947619CF93DF93EC0140E06E8106
S1130640C4DF81E090E00E94071941E06E81CE0191
S1130650BCDF81E090E00E94071940E06E81CE018A
S1130660B4DF84E690E0DF91CF910C940719AF9248
S1130670BF92CF92DF92EF92FF920F931F93CF938B
S1130680DF93EC018A8DA62EB12C8F3F09F46EC046
S11306907E018BE1E80EF11CC70197DE9C0180E02E
S11306A090E061E070E0FE01E80FF91FE781CC24DF
S11306B0C394D12CAB010E2E02C0440F551F0A94D3
S11306C0E2F74095509524233523A501082E02C056
S11306D0559547950A94E2F74170552702C0440F97
S11306E0551FEA95E2F7242B352B019684309105AA
S11306F0D1F686010E8002C0000F111F0A94E2F7A2
S11307000095109502231323B801C701BCDD81E0D5
S113071090E00E94071956010E8002C0AA0CBB1C6F
S11307200A94E2F7A02AB12AB501C701ACDD81E041
S113073090E00E940719B6010E8002C0660F771F71
S11307400A94E2F7609570956A217B21C7019BDDCD
S113075084E690E0DF91CF911F910F91FF90EF908D
S1130760DF90CF90BF90AF900C94071900E010E099
S11307707E01E00EF11E41E0F7016781CE0150DFFA
S1130780A501002E02C0559547950A94E2F74170E1
S1130790F7016781CE0119DF0F5F1F4F0430110588
S11307A039F7CE01DF91CF911F910F91FF90EF9018
S11307B0DF90CF90BF90AF903ECFCF92DF92EF9279
S11307C0FF920F931F93CF93DF938C01C0E0D0E08F
S11307D0C62ED12C7801EC0EFD1E41E0F701678195
S11307E0C8011EDFA6010C2E02C0559547950A9438
S11307F0E2F74170F7016781C801E7DE2196C8304E
S1130800D10541F7C801DF91CF911F910F91FF905E
S1130810EF90DF90CF900FCF1F93CF93DF93EC0136
S1130820162F6C81D2DE6D816F3F19F040E0CE014E
S1130830CCDE8C89612F84FF05C0CE01DF91CF917E
S11308401F91BBCF70E054E0759567955A95E1F719
S1130850CE010DDF612FCE01DF91CF911F9107CF24
S113086040E0DACF61E0FCDF80ED97E00C940719FB
S1130870CF93DF93CDB7DEB728970FB6F894DEBFDA
S11308800FBECDBF28E0EAE1F1E0DE011196019050
S11308900D922A95E1F7FC01208D241710F44FEFF7
S11308A0420FFE013196E40FF11DE40FF11D20818A
S11308B0260F2068622F28960FB6F894DEBF0FBE6D
S11308C0CDBFDF91CF91CCCFFC016589262F246069
S11308D0258B6C60C5CFAF92BF92CF92DF92EF921F
S11308E0FF920F931F93CF93DF93EC01B42EA22EAC
S11308F08A8D8F3F41F481E08B1508F051C08C89BB
S113090088608C8B4DC08AEE93E00E94CA148E01DD
S1130910055E1F4FC801B5DC41E068E0C8017DDD1C
S113092041E066E0C80179DD41E067E0C80175DDBA
S113093067E0CE0155DE6D81662319F041E0C80100
S11309406CDD41E06C81C80168DD41E06E81C80165
S113095064DDE12CF12CFE01EE0DFF1D41E0678109
S1130960C8015BDDEFEFEE1AFE0AF4E0EF16F104C6
S113097091F7E12CF12C6E01CE0CDF1C40E0F60166
S11309806785C8014ADD41E0F6016785C80194DC4A
S1130990FFEFEF1AFF0A85E0E816F10461F7ABCF29
S11309A0B88E198EAA2031F0E1E0BE1203C08C8902
S11309B084608C8B80E593EC0E94071940E06C8185
S11309C0CE0103DE40E06E81CE01FFDD6D816F3F1D
S11309D019F040E0CE01F9DD6C8964FD19C063E0D3
S11309E0CE0145DE84E991E10E94071963E0CE015E
S11309F03EDE84E991E10E94071963E0CE0137DE0F
S1130A0086E990E00E94071962E0CE0130DE13C04F
S1130A106062CE0125DF84E991E10E9407196C89A7
S1130A206062CE011DDF86E990E00E9407196C899F
S1130A306062CE0115DF6C896062CE0111DF84E053
S1130A408D8BCE0141DFCE010DDF82E08E8B66E01F
S1130A50CE01DF91CF911F910F91FF90EF90DF9026
S1130A60CF90BF90AF90FCCEFC0165896D7F658B04
S1130A706860F6CEFC016589262F2260258B6A60AA
S1130A80EFCE41E0C9DE81E090E00895DF92EF927D
S1130A90FF920F931F93CF93DF938C01C0E0D0E0BC
S1130AA06FE1D62E7C018BE1E80EF11CF801EC0F0E
S1130AB0FD1F6785C70153DC282F30E00C2E02C0D0
S1130AC0220F331F0A94E2F7209530958D2D90E084
S1130AD028233923D22E2196C530D10539F7822F08
S1130AE0DF91CF911F910F91FF90EF90DF900895C8
S1130AF00F93FC01CB01642F918380830283438392
S1130B005483258331E030273683AFEFBFEFB087BE
S1130B10A783218713861286DC01ED91FC91068060
S1130B20F781E02D40E00F9109940F931F93CF9329
S1130B30DF93EC018FEF9FEF98878F8388819981F2
S1130B40DC01ED91FC910480F581E02D6B81099528
S1130B50482F50E060E070E00E8110E020E030E0CB
S1130B60401751076207730781F00A8110E020E003
S1130B7030E0401751076207730719F418861F8283
S1130B8004C021E030E038872F838E83CE0107969E
S1130B90DF91CF911F910F9108958F929F92AF9201
S1130BA0BF92CF92DF92EF92FF92CF93DF9388ECC4
S1130BB092E00E946F29C0E0D1E089919991B5DF5C
S1130BC0FC01208131812F3F3F4F21F0BC018AE796
S1130BD093E03FD321E0CA30D20779F70E94A718E7
S1130BE06B017C0182E992E040D6882309F498C025
S1130BF082E992E044D6882309F492C082E992E023
S1130C0038D681118DC0E0911201F09113018689CB
S1130C109789A08DB18D892B8A2B8B2B79F482E94E
S1130C2092E033D681112DC082E992E0DBD4813089
S1130C30904239F582E992E0B0D523C082E992E08E
S1130C4024D6811104C082E992E0CCD41AC082E98E
S1130C5092E021D646015701861A970AA80AB90AD2
S1130C60E0911201F091130126893789408D518D4D
S1130C70A8EEB3E00E94C62A86169706A806B9060F
S1130C80C8F6E0911201F091130186899789A08D2D
S1130C90B18D892B8A2B8B2B09F442C080911001D2
S1130CA090911101F4D7A7019601261B370B480B2D
S1130CB0590BDA01C901893E9340A105B10580F1C0
S1130CC0E0911201F091130126893789408D518DED
S1130CD0A8EEB3E00E94C62A4B015C018C189D0863
S1130CE0AE08BF0882E992E0D6D5680D791D8A1D49
S1130CF09B1D28EE33E040E050E00E94A42A61E00E
S1130D00620F8091100190911101DF91CF91FF90BA
S1130D10EF90DF90CF90BF90AF909F908F90C9C716
S1130D20DF91CF91FF90EF90DF90CF90BF90AF9085
S1130D309F908F9008952A9A08952A988EBD0DB495
S1130D4007FEFDCF1EBC0DB407FEFDCFF4DF8EB54C
S1130D5008952A9882608EBD0DB407FEFDCF6EBD46
S1130D600DB407FEFDCFE7CF88EFE7DF807C80344A
S1130D7091F018F48823E1F00895803819F0803C4C
S1130D8099F0089588EDD9DF81FD09C069EC88EDFB
S1130D90E0DF82E00AC088EDD0DF81FDF7CF6BECA5
S1130DA088EDD7DF83E001C081E0809332020895AB
S1130DB061ED88EDCEDF1092320208950F931F93F8
S1130DC0CF93DF938C01229AB6DF259A239A249835
S1130DD0229A80E58CBD81E08DBD219868E188E888
S1130DE0B8DF60E288E7B5DF60E088E7B2DFC0E043
S1130DF0D0E088E6A2DF219680FD06C0CF3F8FEFCA
S1130E00D807B9F78FEF16C061EC88EDA2DF60E672
S1130E1080ED9FDF64E088EE9CDF88EE8EDF82FF4A
S1130E20FCCFC801A1DF60E288EC93DF61E080E8D9
S1130E3090DF80E0DF91CF911F910F91089540E8FA
S1130E4055E260E070E08CE394E00E941B1620E021
S1130E5042E060E183E792E03EDD88EC92E0AEDFC1
S1130E608F3F81F46AE271E08CE394E00E947A1788
S1130E7068E670E080910A0190910B010E943D1791
S1130E8010920C0184E090E00E940A2B90930F01D1
S1130E9080930E018F3F2FEF920751F0A0E0B0E056
S1130EA080935F0390936003A0936103B093620304
S1130EB082E090E00E940A2B90939102809390022A
S1130EC08F3F2FEF920751F0A0E0B0E080936703CB
S1130ED090936803A0936903B0936A0381E090E060
S1130EE00E94022B80930D018F3F59F090E0A0E007
S1130EF0B0E08093630390936403A0936503B0937D
S1130F00660380E090E00E94022B80938F028F3F63
S1130F1031F091E0811101C090E090936B0308954A
S1130F20EF92FF920F931F9360E070E08AE793E0E3
S1130F3081D16AE773E08CE693E0A8D01AE0E12E51
S1130F40F12C00E010E02AEF30E040E050E06AE7E6
S1130F5073E081E593E0E9D66AE773E08FE393E019
S1130F6035D688EC92E00E94342185EC92E0BCD521
S1130F7045EC52E068EC72E082E992E0BDD183E78F
S1130F8092E002DB60910A0170910B018FE692E01E
S1130F90E1D501E020E040E150E06FE672E083E655
S1130FA092E0A6DD21E042E050E06FE672E087E5E2
S1130FB092E09EDD22E048E050E06FE672E08BE4D0
S1130FC092E096DD23E044E050E06FE672E08FE3C8
S1130FD092E08EDD24E041E050E06FE672E083E3CE
S1130FE092E086DD1F910F91FF90EF9008958FE6B8
S1130FF092E087D58FE393E0FAD581E593E0E0D6DC
S11310008CE693E056C00F931F93CF93DF93EC01CC
S11310108B01FB0180819181892B91F58281813043
S113102061F018F0843099F02BC08C85882351F03E
S1131030883031F541E060E007C082E992E015D4E0
S11310408823F1F041E068E0CE01DAD019C08C8544
S1131050882319F0883031F013C0809112019091E7
S1131060130109C082E992E000D4882349F08091F9
S1131070100190911101F8019483838380E001C0F1
S113108081E0DF91CF911F910F910895CF93DF936A
S1131090EC011AD08BE491E0998388838DE391E08D
S11310A09D838C8383E491E09F838E83DF91CF9132
S11310B008952BE431E0FC013183208308952091CD
S11310C00C01211143C00895FC0183E591E0918353
S11310D0808373836283148681E08587349688E0F5
S11310E0DF011D928A95E9F708951F93CF93DF934B
S11310F0182FD92FC42F40E080910A0190910B0141
S1131100B7DBE12FFD2FEC0FF11DEC0FF11D648116
S1131110758180910A0190910B01DF91CF911F910C
S11311200C945E17CF93C62FFC014585648580918E
S11311300A0190910B019CDB80910A0190910B01B3
S1131140CC2311F0CF9196CCCF918ECCCF93DF935B
S1131150EC0180910A0190910B0184DB8C819D81CB
S1131160892B79F040E060E080910A0190910B01B5
S11311707FDB6C817D8180910A0190910B010E943B
S11311805E178E819F81892B79F040E068E0809121
S11311900A0190910B016CDB6E817F8180910A01C1
S11311A090910B010E945E1788859985892B79F0AF
S11311B041E060E080910A0190910B0159DB688560
S11311C0798580910A0190910B010E945E178A85AE
S11311D09B85892B79F041E068E080910A01909128
S11311E00B0146DB6885798580910A0190910B019A
S11311F00E945E171C8661E0CE01DF91CF9192CFF1
S1131200EF92FF921F93CF93DF931F92CDB7DEB778
S11312107C01162F60E0498385DFF701148749813B
S1131220458761E0C7010F90DF91CF911F91FF9037
S1131230EF9078CFFC01718360830895DC016D9396
S11312407C93DB01ED91FC910280F381E02DCB01D5
S113125009940F931F93CF93DF938C01EB01DC016F
S11312608D919C910097B9F0DC01ED91FC91019076
S1131270F081E02D099581110EC08B819C8100972E
S113128051F0F80191838083DC01ED91FC9102809F
S1131290F381E02D09951C821B8281E090E0DF91AF
S11312A0CF911F910F91089580E00895089580E0F3
S11312B0089580E00895FC01828508950F931F939B
S11312C0CF93DF9300D0CDB7DEB729812078206893
S11312D0298321E02A838B0120E030E0AE014F5FB7
S11312E05F4F67EC70E90E94A31D0F900F90DF9190
S11312F0CF911F910F910895CF93DF93EC010E943A
S1131300771B8BE591E09983888383E791E09B8F3A
S11313108A8F48EE53E060E070E04C8F5D8F6E8FF3
S11313207F8F18A219A21AA21BA28CA1807E8062B0
S11313308CA31EA21DA21FA218A619A61AA61CA63B
S11313401BA684E690E09EA78DA71FA618AA19AA3B
S11313501AAADF91CF9108958F929F92AF92BF9274
S1131360CF92DF92EF92FF920F931F93CF93DF936D
S1131370EC014B0120E030E040E068EC70E90E94B1
S1131380DF206DA57EA580E090E00E94E31820E0B8
S113139030E040E068EC70E9CE010E94DF208C016F
S11313A06DA57EA580E090E00E94E318C12CD12CAD
S11313B07601A12CB12C093180E21807D1F48FEF0A
S11313C0C81AD80AE80AF80AC814D904EA04FB04BB
S11313D080F420E030E040E068EC70E9CE010E9447
S11313E0DF208C016DA57EA580E090E00E94E318CB
S11313F0E2CFC801DF91CF911F910F91FF90EF9041
S1131400DF90CF90BF90AF909F908F9008951F93DF
S1131410CF93DF93EC01162F20E030E040E0611120
S113142003C062E072E902C061E072E9CE010E9489
S1131430DF20813020E2920721F42CA110FB21F956
S11314402CA3DF91CF911F910895EF92FF920F93F8
S11314501F93CF93DF93CDB7DEB728970FB6F894D9
S1131460DEBF0FBECDBF8C01FC0184A182FD3BC059
S113147060E080911001909111011BD463EA70E047
S11314808091100190911101B8D38FEF9FEFDC018F
S113149089839A83AB83BC831D821E821F82188634
S11314A09E012F5F3F4F42E067E072E9C8010E944E
S11314B0DF207C018130F0E29F07C9F421E0F801CC
S11314C085A196A1029708F020E0F80184A120FBF1
S11314D085F9846084A30E94A718F80167A770ABFC
S11314E081AB92AB04C082E0E82E80E2F82EC70103
S11314F028960FB6F894DEBF0FBECDBFDF91CF9113
S11315001F910F91FF90EF9008950F931F93CF9326
S1131510DF93CDB7DEB72A970FB6F894DEBF0FBEC0
S1131520CDBFE985E078E260EF77E9871A864983E1
S11315305A836B837C830D831E832F83388700E05B
S113154010E09E012F5F3F4FAE01475F5F4F64E0A5
S113155072E90E94A31D2A960FB6F894DEBF0FBE4F
S1131560CDBFDF91CF911F910F9108950F931F93DA
S1131570CF93DF93EC01E0911201F09113016289A2
S113158073897EA36DA3809110019091110159D3A9
S11315901FA218A619A61AA68CA188608F7E8CA3F8
S11315A0CE0153DF8C01013080E2180799F46DA15C
S11315B07EA1809110019091110143D3809110017B
S11315C0909111016AD32DA13EA1215031093EA36E
S11315D02DA302C01EA21DA2C801DF91CF911F91AD
S11315E00F9108950F931F93CF93DF93EC018DA177
S11315F09EA1892B09F47CC06DE970E080911001F3
S113160090911101FAD261E0CE0101DF8C01013029
S113161080E2180709F056C068EE73E0CE019CDE44
S11316208C01013080E2180709F04CC067E970E0D2
S11316308091100190911101E0D2E0911201F0919A
S11316401301068517852089318942E050E060E066
S113165070E0CE015ADF8C01013080E2180791F569
S1131660E0911201F09113014FA158A569A57AA543
S113167086859785A089B189480F591F6A1F7B1FEA
S11316804FA358A769A77AA768EE73E0CE0164DE7A
S11316908C01013080E21807A9F460E970E08091C0
S11316A0100190911101A9D260E0CE01B0DE8C014D
S11316B08CA180628CA36DA17EA180911001909178
S11316C01101BFD20E3080EA180741F46CE870E0D3
S11316D0809110019091110190D204C0013080E2F8
S11316E0180741F01EA21DA28CA1877F8CA302C003
S11316F002E010E2C801DF91CF911F910F9108958C
S1131700FC0116A215A284A1877F84A308950F93D8
S11317101F93CF93DF93EC01E0911201F091130139
S1131720828D882399F16BE770E08091100190918C
S1131730110163D261E0CE016ADE813020E29207BA
S113174039F568EE73E0CE0107DE813020E29207BE
S1131750F9F40FA118A529A53AA541E050E060E0ED
S113176070E0CE01D2DE813020E2920789F468EE87
S113177073E0CE01F1DD813020E2920749F460E0AC
S1131780CE01DF91CF911F910F9141CE81E090E284
S1131790DF91CF911F910F9108950F931F93CF93D2
S11317A0DF93EC018DA19EA1892B11F1CE014DDEB9
S11317B08C01013080E2180751F48DA19EA101979C
S11317C09EA38DA3892B21F58CA180610FC00C30C1
S11317D080E2180739F463E870E080911001909179
S11317E011010BD21EA21DA28CA1877F8CA310C055
S11317F08CA1877F8CA384FF02C0CE0188DF609117
S11318001401709115018AE793E018DD02E010E2FB
S1131810C801DF91CF911F910F910895CF93DF936A
S1131820EC0161157105C1F0FB01808191818D305E
S1131830904491F46BEA70E0809110019091110151
S1131840DCD18CA18B7F8CA38DA19EA1892B21F44B
S1131850CE01DF91CF91A1CFDF91CF910895FC010B
S113186024A160FB20F924A30895FC0184A18170C4
S11318700895FC0184A182FB882780F90895FC0166
S113188084A183FB882780F90895FC0184A185FB4A
S1131890882780F90895FC0167A570A981A992A9F8
S11318A008957F928F929F92AF92BF92CF92DF92D0
S11318B0EF92FF920F931F93CF93DF93CDB7DEB7D1
S11318C02C970FB6F894DEBF0FBECDBF7C01962EC9
S11318D0842E722EDC011C968D919C911D971A9674
S11318E02C91211156C0DC01ED91FC910190F08105
S11318F0E02D60E009956C01009709F44CC0FC01EF
S1131900A080B180A114B10409F447C0C7010E96A8
S1131910918380838E010F5F1F4F2CE030E040E005
S113192060E0D7011C968D919C911D970E94B12671
S1131930182FF601B182A082882341F061E070E0A3
S113194080E090E00E94E318812F28C089859A8561
S1131950803B944071F48B859C85D7019C969C9325
S11319608E939B97272D482D692DC7010E94FE1B3E
S113197015C080910A0190910B010E94320462EB20
S113198070E080910A0190910B010E943D1781ED56
S113199005C089ED03C086ED01C087ED2C960FB616
S11319A0F894DEBF0FBECDBFDF91CF911F910F9191
S11319B0FF90EF90DF90CF90BF90AF909F908F906B
S11319C07F900895CF92DF92EF92FF920F931F932F
S11319D0CF93DF93CDB7DEB769970FB6F894DEBF28
S11319E00FBECDBF8C010E949D1DD80194968C9191
S11319F080FF46C00E94A7186B017C01F80180A1FA
S1131A0091A1A2A1B3A1C816D906EA06FB06C0F1AA
S1131A1080E192E09A8389838FEF9FEF9C838B838D
S1131A20C8014A969E838D8318861B861A861F8A50
S1131A301E8A188E198E198A188A1B8A1A8A1D8A78
S1131A401C8ACE0140969F878E870190F081E02DFD
S1131A500088F189E02DBE016F5F7F4FC8010995B1
S1131A60D8015C964D915D916D917C915F974C0D81
S1131A705D1D6E1D7F1DF80140A351A362A373A3D6
S1131A8080E069960FB6F894DEBF0FBECDBFDF913C
S1131A90CF911F910F91FF90EF90DF90CF90089519
S1131AA04A97BCCEFC01CB0122812D7F59F421E061
S1131AB0228360E0D4DE60911401709115018AE7FD
S1131AC093E0BCCB0895FC01CB012281223058F471
S1131AD022E0228361E0C3DE60911401709115015C
S1131AE08AE793E0ABCB089529E731E0FC01318329
S1131AF020831282089529E831E0FC013183208398
S1131B00089529E831E0FC01318320830895089584
S1131B1029E831E0FC01318320830C94FD1629E887
S1131B2031E0FC01318320830C94FD16CF93DF93C5
S1131B301F92CDB7DEB7FC018281938169830E9435
S1131B4046056981682381E009F480E00F90DF9104
S1131B50CF91089525E931E0FC013183208373831B
S1131B6062830895CF93DF93EC0180910A019091F1
S1131B700B010E94320440E060E080910A019091E0
S1131B800B010E9438046C817D8180910A0190913F
S1131B900B010E945E1782E992E0DF91CF91E6CCBF
S1131BA0CF93DF93EB0188819981892B59F482E9E2
S1131BB092E0A6DD80911401909115019C838B83A2
S1131BC080E001C081E0DF91CF910895CF93DF934E
S1131BD0EC017ADA85EA91E0998388838DE991E0D2
S1131BE09D838C831F821E82DF91CF91089525EA05
S1131BF031E0FC01318320830895CF93DF93EB011F
S1131C0040E068E080910A0190910B010E94380441
S1131C1065ED70E080910A0190910B010E943D17DF
S1131C2040E068E080910A0190910B010E94380421
S1131C30BE0180910A0190910B01DF91CF910C9428
S1131C403D17CF93DF93EB0140E064E080910A01FC
S1131C5090910B010E94380460ED70E080910A01BC
S1131C6090910B010E943D1740E064E080910A01CD
S1131C7090910B010E9438044AE050E0BE0180912B
S1131C800A0190910B01DF91CF910C94F317FC01A1
S1131C9066857785808991890895CF93DF93EC01D8
S1131CA00E94A7186E877F87888B998BDF91CF91CD
S1131CB00895CF93C62FF1DF41E060E080910A01DF
S1131CC090910B010E94380480910A0190910B01BC
S1131CD0CC2331F16AEC70E00E943D1741E066E0EC
S1131CE080910A0190910B010E94380465EC70E028
S1131CF080910A0190910B010E943D1741E066E03A
S1131D0080910A0190910B010E9438044AE050E04E
S1131D106C2F80910A0190910B01CF910C94F817CC
S1131D206CEB70E0CF910C943D17AF92BF92CF92C1
S1131D30DF92EF92FF920F931F93CF93DF9300D024
S1131D4000D0CDB7DEB75C016701780129833A83FF
S1131D504B835C83B9D988EE91E0F501918380834C
S1131D6029813A814B815C8126873787408B518B4F
S1131D70C28AD38AE48AF58A168A178A108E118E4B
S1131D80128E89EA91E0958384838DE991E09783AB
S1131D9086838DEA91E09187808781EB91E0938738
S1131DA082870F900F900F900F90DF91CF911F912A
S1131DB00F91FF90EF90DF90CF90BF90AF90089578
S1131DC028EE31E0FC013183208308950F931F93A3
S1131DD0CF93DF93EC01062F1C8565EB71E08CE358
S1131DE094E00E945E174AE050E0602F8CE394E098
S1131DF00E94F81768EC71E08CE394E00E945E178F
S1131E004AE050E0612F8CE394E00E94F8170F3F02
S1131E1081F4153009F118F41123D1F008C01930F8
S1131E2021F01D3021F41BE01AC017E018C0115036
S1131E3016C00130A1F4173089F020F4133051F4A6
S1131E4015E00DC01B3021F01D3021F410E007C057
S1131E501DE005C01F5F03C013E001C019E041E0AD
S1131E60612FCE01CDD967ED71E08CE394E00E943F
S1131E705E174AE050E0612F8CE394E00E94F8176B
S1131E808CE394E0DF91CF911F910F910C9466172E
S1131E90BF92CF92DF92EF92FF920F931F93CF9353
S1131EA0DF93EC01AB01662757FD6095762FCE8456
S1131EB0DF84E888F9884C0D5D1D6E1D7F1D1416A6
S1131EC015061606170624F041E050E060E070E0C5
S1131ED04E875F87688B798B4E855F8568897989A2
S1131EE0403157426105710544F04FE057E260E02C
S1131EF070E04E875F87688B798B6E857F858889D4
S1131F009989B12C2AE0C22ED12CE12CF12C611537
S1131F1071058105910541F0A70196010E94A42A4B
S1131F20CA01B901B394F3CF41E060E080910A01A2
S1131F3090910B010E943804F12C04E010E00B197D
S1131F4011092F2D30E080910A0190910B01201787
S1131F5031072CF46CEE70E090D7F394F2CF4E85F9
S1131F605F85688979892AE030E00E94151841E08C
S1131F706C8580910A0190910B01DF91CF911F91A3
S1131F800F91FF90EF90DF90CF90BF900C943804A6
S1131F90BF92CF92DF92EF92FF920F931F93CF9352
S1131FA0DF93EC01AB01662757FD6095762FCA8855
S1131FB0DB88EC88FD884C0D5D1D6E1D7F1D14169D
S1131FC015061606170624F041E050E060E070E0C4
S1131FD04A8B5B8B6C8B7D8B4A895B896C897D8991
S1131FE0483E53406105710544F047EE53E060E01C
S1131FF070E04A8B5B8B6C8B7D8B6A897B898C89C7
S11320009D89B12C3AE0C32ED12CE12CF12C611521
S113201071058105910541F0A70196010E94A42A4A
S1132020CA01B901B394F3CF41E065E080910A019C
S113203090910B010E943804F12C03E010E00B197D
S113204011092F2D30E080910A0190910B01201786
S113205031072CF46AEE70E010D7F394F2CF4A897A
S11320605B896C897D892AE030E0DFD741E06C85AB
S113207080910A0190910B01DF91CF911F910F91F3
S1132080FF90EF90DF90CF90BF900C943804BF92F4
S1132090CF92DF92EF92FF920F931F93CF93DF9330
S11320A0EC01AB01662757FD6095762FCE88DF885B
S11320B0E88CF98C4C0D5D1D6E1D7F1D77FD05C0F0
S11320C04E8B5F8B688F798F04C01E8A1F8A188E8F
S11320D0198E4E895F89688D798D483E534061051C
S11320E0710544F047EE53E060E070E04E8B5F8B87
S11320F0688F798F6E897F89888D998DB12C4AE09C
S1132100C42ED12CE12CF12C6115710581059105AA
S113211041F0A70196010E94A42ACA01B901B3940F
S1132120F3CF41E069E080910A0190910B010E9494
S11321303804F12C03E010E00B1911092F2D30E0C5
S113214080910A0190910B01201731072CF468EE5D
S113215070E093D6F394F2CF4E895F89688D798DC0
S1132160411551056105710519F02AE030E05DD78C
S113217041E06C8580910A0190910B01DF91CF9130
S11321801F910F91FF90EF90DF90CF90BF900C9430
S113219038040F931F93CF93DF93EC018B0141E03D
S11321A06DE080910A0190910B010E94380464EE65
S11321B070E080910A0190910B015FD641E06DE0DF
S11321C080910A0190910B010E943804012B21F0A7
S11321D08A8D91E089278A8F8A8D882319F060EE91
S11321E070E002C06DED70E080910A0190910B01E6
S11321F044D641E06C8580910A0190910B01DF91F6
S1132200CF911F910F910C943804CF92DF92EF92EB
S1132210FF920F931F93CF93DF93EC018B01FB018C
S113222080819181892B09F0DBC04C8582818230C9
S113223009F443C040F4882309F47DC0813009F0D7
S1132240CFC061E079C0833021F0843009F477C0D5
S1132250C7C0443058F468E17CEF2AE030E04150D4
S1132260C8F1CB01B9010E94912AF9CF8BEF840FF9
S1132270833060F46CE97FEF2AE030E04150443071
S1132280E1F1CB01B9010E94912AF8CF87EF840FC5
S1132290833068F46CE97FEF2AE030E04150483045
S11322A009F43EC0CB01B9010E94912AF7CF4D3009
S11322B009F096C06FEF7FEF3BC0443070F468EED6
S11322C073E02AE030E0415028F0CB01B9010E94CC
S11322D0912AF9CFCE01DCDD83C08BEF840F8330EC
S11322E078F464E670E02AE030E04150443029F0AC
S11322F0CB01B9010E94912AF8CFCE0149DE70C00A
S113230087EF840F833078F464E670E02AE030E0ED
S11323104150483029F0CB01B9010E94912AF8CFED
S1132320CE01B5DE5DC04D3009F05AC061E070E009
S1132330CE012FDF55C06FEFCE0148DD51C084E0E0
S113234090E00E940A2B6C016E857F8588899989AB
S1132350E12CF12CC616D706E806F90621F084E034
S113236090E00E941D2B82E090E00E940A2B6C01F9
S11323706E897F89888D998DE12CF12CC616D7063C
S1132380E806F90621F082E090E00E941D2B81E02E
S113239090E00E94022BC82E6A897B898C899D89D2
S11323A0D12CE12CF12CC616D706E806F90621F04B
S11323B081E090E00E940F2B80E090E00E94022BCD
S11323C06A8D861721F080E090E00E940F2B8091A7
S11323D0140190911501F8019483838380E001C076
S11323E081E0DF91CF911F910F91FF90EF90DF90EB
S11323F0CF900895CF93DF93EC0180910A019091DF
S11324000B010E94320440E060E0CE010E94750896
S113241041E065E0CE010E94750842E069E0CE012A
S11324200E94750843E06DE0CE010E9475081C8689
S113243060E070E0CE012CDD60E070E0CE01A8DD4C
S113244060E070E0CE0123DE60E070E0CE01A1DE4A
S11324501C8661E0CE01DF91CF910C94920810921A
S1132460E90381E08093E7031092E60361E082E1EF
S113247075D761E083E172D7E9EBF0E080818E7F6C
S1132480808380818D7F808388E48093B80085E495
S11324908093BC000895413208F03FC09091E90355
S11324A09111FCCF91E09093E9032093E7032FEF80
S11324B020937C031092C103240F2093C0039093B4
S11324C0E8039091E803880F892B8093E8038091B7
S11324D0E603813041F41092E6038091E80380938F
S11324E0BB0085EC01C085EE8093BC008091E903BC
S11324F08130E1F38091C103841710F44091C1034A
S113250022EC33E0FB01D9018A2F821B841718F4D3
S11325108D918193F9CF842F089580E008950F93CE
S1132520413208F046C09091E9039111FCCF92E04A
S11325309093E9030093E7039FEF90937C03109239
S1132540C1034093C003FB0162EC73E0DB019A2FEB
S1132550961B941718F491919D93F9CF1092E80368
S11325609091E803880F892B8093E8038091E60318
S1132570813041F41092E6038091E8038093BB001C
S113258085EC01C085EE8093BC00222321F080916C
S1132590E9038230E1F380917C038F3F61F0809105
S11325A07C03803251F080917C03803341F483E0DA
S11325B007C081E005C080E003C082E001C084E080
S11325C00F910895613298F42091E903243089F43D
S11325D060939E03FC0180EA93E0DC012A2F281B10
S11325E0261718F421912D93F9CF80E0089581E006
S11325F0089582E0089585ED8093BC008091BC002D
S113260084FDFCCF1092E903089585EC8093BC000F
S11326101092E90308951F920F920FB60F9211249E
S11326202F933F934F935F936F937F938F939F93D6
S1132630AF93BF93EF93FF938091B900887F803667
S113264009F49CC068F5883209F45BC090F48031C9
S113265009F454C038F4882309F4F3C0883009F429
S11326604DC0F2C0883109F44CC0803209F45DC019
S1132670EBC0803409F468C048F4803309F455C0D1
S1132680883309F0E1C080937C03A7C0803509F446
S11326904FC0883509F45DC0883409F0D5C0D3C073
S11326A0883909F4C4C0A8F4883709F467C038F439
S11326B0883609F463C0803709F460C0C5C088381F
S11326C009F4B5C0803909F45FC0803809F0BCC092
S11326D05BC0803B09F483C038F4803A09F466C0D7
S11326E0883A09F47CC0B0C0803C09F4A4C0883C9A
S11326F009F4A1C0883B09F487C0A6C08091E8030F
S113270010C09091C1038091C003981770F5E091B7
S1132710C10381E08E0F8093C103F0E0EE53FC4FC0
S113272080818093BB0085EC83C080937C038BC045
S1132730E091C10381E08E0F8093C1038091BB00BF
S1132740F0E0EE53FC4F80839091C1038091C0036D
S11327506BC0E091C10381E08E0F8093C10380912F
S1132760BB00F0E0EE53FC4F80838091E7038111BE
S11327706AC081E08093E60384EA5EC083E08093CC
S1132780E90310927D03CFCF80917D03803208F05E
S11327904EC0E0917D0381E08E0F80937D03809194
S11327A0BB00F0E0E258FC4F8083BDCF80917D03F5
S11327B0803230F4E0917D03F0E0E258FC4F108267
S11327C01ADF60917D0370E0E091E203F091E3038E
S11327D08EE793E0099510927D0317DF35C084E0FE
S11327E08093E90310929F0310929E03E091E40307
S11327F0F091E503099580919E03811105C081E064
S113280080939E031092A003E0919F0381E08E0FBA
S113281080939F03F0E0E056FC4F80818093BB00DF
S113282090919F0380919E03981708F47CCF85E8CC
S11328308093BC0009C085EC8093BC001092E9032E
S113284003C010927C03D7DEFF91EF91BF91AF914B
S11328509F918F917F916F915F914F913F912F91B4
S11328600F900FBE0F901F90189580911A0490E05E
S113287020911B04821B9109089520911B048091CF
S11328801A04281750F4E22FF0E0E45EFB4F808135
S113289090E02F5F20931B0408958FEF9FEF08951E
S11328A0E0911B0480911A04E81730F4F0E0E45E30
S11328B0FB4F808190E008958FEF9FEF0895089576
S11328C0CF92DF92EF92FF920F931F93CF93DF93F8
S11328D07C01CB018A012091F603222389F0EB01CC
S11328E06B01C40ED51ECC15DD0561F06991D701CD
S11328F0ED91FC910190F081E02DC7010995F3CF92
S1132900642F60DEC801DF91CF911F910F91FF907A
S1132910EF90DF90CF900895CF93DF931F92CDB7C0
S1132920DEB769832091F6032223D1F02091F703C7
S1132930203240F021E030E0FC013383228380E048
S113294090E014C08091F803E82FF0E0E750FC4FCA
S1132950998190838F5F8093F8038093F70304C079
S113296061E0CE0101962EDE81E090E00F90DF91D0
S1132970CF910895FC011382128248EE53E060E087
S113298070E0448355836683778380EF91E091837D
S11329908083089510921B0410921A041092F80375
S11329A01092F7035CCD862F413208F040E26CE1CF
S11329B074E071DD10921B0480931A04089521E0E1
S11329C0F2CF81E08093F603609319041092F80328
S11329D01092F7030895F5CF0F93062F21E040914D
S11329E0F70369EF73E08091190499DD1092F803FD
S11329F01092F7031092F6030F91089561E0ECCF63
S1132A008AEE93E0B7CFFC0184859585FC01E05CF8
S1132A10FF4F20813181FC01EE5BFF4F808191816A
S1132A20281B390B2F733327C9010895FC018485B2
S1132A309585FC01E05CFF4F40815181FC01EE5B18
S1132A40FF4F208131814217530741F00190F081FB
S1132A50E02DE80FF91F208130E002C02FEF3FEF97
S1132A60C9010895FC0184859585FC01E05CFF4F54
S1132A7040815181FC01EE5BFF4F2081318142177F
S1132A80530781F0A081B181A80FB91F8C912081D7
S1132A9031812F5F3F4F2F73332731832083282FBA
S1132AA030E002C02FEF3FEFC9010895FC0181A17E
S1132AB0882329F0A489B5898C9186FFFBCF11A2C4
S1132AC00895CF93DF93FC0126853785D901A05C57
S1132AD0BF4F8D919C91119701968F739927E901AE
S1132AE0CE5BDF4F4881598184179507D9F30D9048
S1132AF0BC91A02DA20FB31F6C93A685B785A05CD3
S1132B00BF4F11969C938E93A689B7892C9181E02F
S1132B1090E0078C02C0880F991F0A94E2F7282BD3
S1132B202C9381E081A30488F589E02D8081806461
S1132B30808381E090E0DF91CF91089508951F9202
S1132B400F920FB60F9211242F933F934F938F93AD
S1132B509F93EF93FF938091C00082FD1CC040912E
S1132B60C6008091E2049091E30401968F73992743
S1132B702091E4043091E5048217930771F0E09109
S1132B80E204F091E304EE55FB4F40839093E30499
S1132B908093E20402C08091C600FF91EF919F915F
S1132BA08F914F913F912F910F900FBE0F901F90D7
S1132BB018958CE394E027DF892B09F0BFCF0895A3
S1132BC01F920F920FB60F9211242F933F938F935E
S1132BD09F93EF93FF9320919E0430919F048091E3
S1132BE0A0049091A1042817390731F48091C10001
S1132BF08F7D8093C10014C0E091A004F091A104E2
S1132C00E25AFB4F20818091A0049091A104019687
S1132C108F7399279093A1048093A0042093C600F6
S1132C20FF91EF919F918F913F912F910F900FBE44
S1132C300F901F901895CF92DF92EF92FF92CF934F
S1132C40DF93EC016A017B01411581EE58076105B0
S1132C507105F9F0EC89FD8981E090E008A002C0DB
S1132C60880F991F0A94E2F7808360E079E08DE38E
S1132C7090E0A70196010E94A42A2150310941093C
S1132C8051095695479537952795211580E13807C1
S1132C9098F0EC89FD89108260E874E88EE190E098
S1132CA0A70196010E94A42A215031094109510922
S1132CB05695479537952795E889F9893083EA89A8
S1132CC0FB89208319A2EE89FF89408181E090E08D
S1132CD09C010C8C02C0220F331F0A94E2F7422B92
S1132CE04083EE89FF8940819C010D8C02C0220F34
S1132CF0331F0A94E2F7422B4083EE89FF89408117
S1132D009C010E8C02C0220F331F0A94E2F7422B5F
S1132D104083EE89FF8920810F8C02C0880F991FA0
S1132D200A94E2F7809582238083DF91CF91FF900C
S1132D30EF90DF90CF90089510923F0410923E04DC
S1132D4088EE93E0A0E0B0E08093400490934104C7
S1132D50A0934204B093430480E092E090933D0436
S1132D6080933C0482EA94E090934904809348045D
S1132D708EE594E090934B0480934A0485EC90E0B4
S1132D8090934D0480934C0484EC90E090934F0412
S1132D9080934E0480EC90E090935104809350040F
S1132DA081EC90E0909353048093520482EC90E081
S1132DB0909355048093540486EC90E090935704C8
S1132DC08093560484E08093580483E080935904EC
S1132DD087E080935A0485E080935B0481E08093CC
S1132DE05C0408951ED20E941F07C9EDD5E10E941C
S1132DF0CD052097E1F3DDDEFACFE6C20895CF9248
S1132E00DF92EF92FF920F931F93CF93DF936C01A6
S1132E10EB017A01E60EF71E00E010E00BC06991A9
S1132E20D601ED91FC910190F081E02DC601099548
S1132E30080F191FCE15DF0591F7C801DF91CF9157
S1132E401F910F91FF90EF90DF90CF90089561153F
S1132E50710581F0DB010D900020E9F7AD014150CF
S1132E605109461B570BDC01ED91FC910280F38163
S1132E70E02D099480E090E00895EF92FF920F9383
S1132E801F93CF93DF937C01EB0100E010E0FE0180
S1132E9021966491662351F0F701A081B181ED91EF
S1132EA0FC91C7010995080F191FF1CFC801DF91E3
S1132EB0CF911F910F91FF90EF900895C8CFDC013F
S1132EC0ED91FC910190F081E02D09940F931F93F3
S1132ED0CF93DF93EC016DE0F2DF8C016AE0CE0169
S1132EE0EEDF9C01200F311FC901DF91CF911F91AB
S1132EF00F9108950F931F93CF93DF93EC01A7DFF6
S1132F008C01CE01E3DF9801280F391FC901DF913D
S1132F10CF911F910F9108954F925F926F927F927C
S1132F209F92AF92BF92CF92DF92EF92FF920F9354
S1132F301F93CF93DF93CDB7DEB7A1970FB6F89465
S1132F40DEBF0FBECDBF5C016A017B01922E19A2C8
S1132F5081E0821710F08AE0982E8E010F5D1F4FDA
S1132F60492C512C612C712CC701B601A30192018B
S1132F700E94A42A8C2D929E8019112401501109BB
S1132F808A3010F4805D01C0895CF8018083690196
S1132F907A01C114D104E104F10431F7B801C50187
S1132FA056DFA1960FB6F894DEBF0FBECDBFDF91FA
S1132FB0CF911F910F91FF90EF90DF90CF90BF9032
S1132FC0AF909F907F906F905F904F9008952115E0
S1132FD0310541F4DC01ED91FC910190F081E02D8B
S1132FE0642F099499CF9A01AB0160E070E0EFCFB0
S1132FF09A01462F50E060E070E0E9CF0F931F93F1
S1133000CF93DF93EC019A01462F50E060E070E02B
S1133010DEDF8C01CE015ADF9801280F391FC90168
S1133020DF91CF911F910F910895CF92DF92EF928C
S1133030FF920F931F93CF93DF93EC016A017B01FF
S11330402115310579F4E881F9810190F081E02DB1
S1133050642FDF91CF911F910F91FF90EF90DF903C
S1133060CF9009942A30310519F477FD0DC02AE078
S1133070B701A601CE01DF91CF911F910F91FF906F
S1133080EF90DF90CF9048CF6DE219DF8C01442799
S11330905527BA014C195D096E097F092AE0CE0152
S11330A03BDF080F191FC801DF91CF911F910F91CA
S11330B0FF90EF90DF90CF9008951F920F920FB67C
S11330C00F9211242F933F938F939F93AF93BF93AA
S11330D08091E6049091E704A091E804B091E9049A
S11330E03091EE04232F2D5F2D3720F40196A11D7E
S11330F0B11D05C0232F2A570296A11DB11D20938F
S1133100EE048093E6049093E704A093E804B0935C
S1133110E9048091EA049091EB04A091EC04B0914D
S1133120ED040196A11DB11D8093EA049093EB0474
S1133130A093EC04B093ED04BF91AF919F918F9154
S11331403F912F910F900FBE0F901F9018950F93E2
S11331501F938FB7F8940091E6041091E70420912F
S1133160E8043091E9048FBFB801C9011F910F91A0
S113317008950F931F939FB7F8940091EA04109158
S1133180EB042091EC043091ED0486B5A89B06C0B5
S11331908F3F21F00F5F1F4F2F4F3F4F9FBF322FA5
S11331A0212F102F0027080F111D211D311D42E072
S11331B0000F111F221F331F4A95D1F7B801C9010F
S11331C01F910F910895CF92DF92EF92FF92CF93C8
S11331D0DF936B017C01CDDFEB010DC0CADF6C1BFB
S11331E07D0B683E734038F081E0C81AD108E108CD
S11331F0F108C851DC4FC114D104E104F10471F7A2
S1133200DF91CF91FF90EF90DF90CF9008950197D9
S113321039F0880F991F880F991F02970197F1F7CA
S11332200895789484B5826084BD84B5816084BD3A
S113323085B5826085BD85B5816085BDEEE6F0E02B
S1133240808181608083E1E8F0E010828081826087
S11332508083808181608083E0E8F0E08081816008
S11332608083E1EBF0E0808184608083E0EBF0E038
S1133270808181608083EAE7F0E0808184608083DC
S11332808081826080838081816080838081806886
S113329080831092C1000895833069F028F481304E
S11332A0A1F0823011F514C08630B1F08730C1F03E
S11332B08430D9F404C0809180008F7703C080915A
S11332C080008F7D80938000089584B58F7702C03D
S11332D084B58F7D84BD08958091B0008F7703C03D
S11332E08091B0008F7D8093B0000895CF93DF93D9
S11332F090E0FC01EE5FFE4F4491FC01EA5EFE4F5C
S11333008491882341F190E0880F991FFC01EC5CC3
S1133310FE4F25913491D901865D9E4FFC01859124
S11333209491C82FD92F9FB7F8948C91611106C03E
S1133330409584238C938881842308C0623041F4AF
S1133340242F209582238C938881842B888302C028
S1133350842B8C939FBFDF91CF9108950F931F937C
S1133360CF93DF931F92CDB7DEB7282F30E0F9015A
S1133370E251FF4F8491F901EE5FFE4F1491F90180
S1133380EA5EFE4F04910023C9F0882319F0698393
S113339083DF6981E02FF0E0EE0FFF1FE65DFE4F53
S11333A085919491DC019FB7F8948C91611103C0CD
S11333B01095812301C0812B8C939FBF0F90DF91C7
S11333C0CF911F910F910895EF92FF920F931F9346
S11333D0CF93DF93009709F48FC0DC011297139603
S11333E01C921E921297E090F504F090F604E114FA
S11333F0F10489F42D913C911197280F391F809184
S11334001601909117018217930789F5B09317015C
S1133410A093160171C0E70120E030E001C0EA0189
S1133420CA17DB0738F44A815B819E0141155105B7
S1133430B1F722C0BC0162507109FB01D383C2837E
S113344000811181AC01400F511F4C175D0761F4DD
S113345048815981400F511F4E5F5F4F5183408314
S11334604A815B81538342832115310529F4B0934A
S1133470F604A093F50440C0F901B383A283E901E3
S113348069917991C60FD71FAC17BD0779F4DC0198
S11334905E914E91460F571F4E5F5F4F518340839D
S11334A012968D919C91139793838283A0E0B0E050
S11334B002C0D7017C01F701828193810097C9F78B
S11334C0C701029620813181820F931F209116013A
S11334D0309117012817390779F4109729F41092BD
S11334E0F6041092F50404C013961C921E921297CF
S11334F0F0921701E0921601DF91CF911F910F9185
S1133500FF90EF900895CF92DF92EF92FF920F9386
S11335101F93CF93DF9300D000D0CDB7DEB78C01DB
S11335205C834B837A836983DC0117968C918230A8
S1133530E9F028F4882341F0813071F065C08330CC
S113354051F1843099F160C0445F5F4F5C834B83D9
S11335506C5071097A83698322E0F8012487858598
S11335609685968B858B208F278B2783AE014F5FA3
S11335705F4FBE016D5F7F4FC801459638D68823E3
S113358009F442C0C8010F96D8011A969C938E93F1
S113359019971B968C9326E0F801248785859685D8
S11335A0968B858B208F278B84E087837801F5E1C8
S11335B0EF0EF11C68018FE0C80ED11CD8011B96D8
S11335C08C911B978823F1F0AE014F5F5F4FBE01D2
S11335D06D5F7F4FC7010BD68823B1F0D8011496D5
S11335E08D919C911597009741F0DC01ED91FC9130
S11335F00190F081E02DB6010995F8018385815091
S11336008387DCCF17961C920F900F900F900F902A
S1133610DF91CF911F910F91FF90EF90DF90CF90AA
S1133620089584E0FB018283089508950895CF935B
S1133630DF93EC018C859D85DC01ED91FC91048088
S1133640F581E02D6A85099581E08A838F819885CB
S1133650DC01ED91FC910190F081E02DBE01099512
S11336601A861E821D828FEF9FEF9C838B8380E0DE
S1133670DF91CF9108950F931F93CF93DF93CDB72D
S1133680DEB72A970FB6F894DEBF0FBECDBFFC019C
S113369019821A821B821C821D821E821F82188636
S11336A088E090E09A8789878E010F5F1F4F9E0103
S11336B0275F3F4F47896285848595850E946F27E0
S11336C08F3F41F061E070E080E090E07CDD82E0DB
S11336D090E202C080E090E42A960FB6F894DEBF30
S11336E00FBECDBFDF91CF911F910F910895CF935E
S11336F0DF93FC0186E192E09183808312828FEF55
S11337009FEF9483838316821582508747831286A2
S1133710138675876487168688E087879CE3908B79
S1133720118A828B138A148A858B168A178A808F52
S1133730118E61157105B9F0CB01A0E0B0E0EC0188
S1133740CA5ADF4F28813981232B41F49B96AA0F53
S1133750BB1FA60FB71FED93FC9305C011960296ED
S1133760A031B10561F7DF91CF9108950F931F93B5
S1133770CF93DF9320E030E0DB01A20FB31F139659
S11337804C911397437012960C911297433049F061
S1133790423049F4102F1095111F1127111F1F5F7C
S11337A003C013E001C012E0412F50E0EA01CC0F46
S11337B0DD1FFE01E40FF51FE80FF91F0F700687E8
S11337C01496AC91A787108A133011F4A0E001C0BD
S11337D0AFE0FE01E40FF51FE80FF91FAA0FAA0FCF
S11337E0408943704A2B408B295F3F4F2531310577
S11337F019F6DF91CF911F910F9108954F925F9227
S11338006F927F928F929F92AF92BF92CF92DF92EC
S1133810EF92FF920F931F93CF93DF93CDB7DEB751
S1133820A7970FB6F894DEBF0FBECDBF6C01562E1E
S1133830442EDC011C96AD90BC901D971A968C9179
S113384081110BC1D501ED91FC910190F081E02D26
S113385060E0C50109957C01009709F400C1FC01F1
S1133860808091808114910409F4FBC03601FEE04C
S11338706F0E711CDC016D927C928E010F5F1F4FE5
S113388028E030E040E060E0F601848595850E9400
S1133890B1268111EAC019818D81882351F08630C7
S11338A041F08E81813029F08F81813011F081EDDA
S11338B0DFC0D501ED91FC910280F381E02D242D30
S11338C040E0652DC5010995F6018287882309F436
S11338D0CAC098859787282F40E060E08485958545
S11338E00E94FD26582E8823B9F0D7018D929C9210
S11338F0D501ED91FC910480F581E02DD6011A9655
S11339006C91C5010995F601128661E070E080E0D2
S113391090E059DC852DACC0113208F010E261E072
S113392070E080E090E04FDCD7018D929C92111101
S11339300DC0AA88930144E0F601628584859585CB
S113394083D5182F811181C0B12C4AC0212F30E0BA
S11339508E010F5F1F4F40E0D6011A966C911A97A3
S11339601C968D919C911D970E94B126182F811150
S11339706CC0DFCFFE0131967F010B2D28E030E0D3
S113398040E0D6011A966C911A971C968D919C91E1
S11339901D970E94D726182F811157C02B813C8177
S11339A02832310510F027E230E0FE0131967F0124
S11339B00B2D40E0D6011A966C911A971C968D91A6
S11339C09C911D970E94D726182F81113EC061E05B
S11339D070E080E090E0F7DB8D81811104C0B39446
S11339E0BA10C8CF11C08F858630C9F78889813055
S11339F0B1F78989813099F7BE016D5E7F4FC601A9
S1133A00B5DE8E81F6018387D6011B962C911B9718
S1133A10222309F44CCF40E01A966C911A971C9615
S1133A208D919C911D970E942B27182F81110DC0F9
S1133A30F601168215828FEF9FEF9483838382E0D1
S1133A40828381E0818780E013C040E150E0612FF0
S1133A508CE394E0D3DA812F0BC089ED09C086EDA5
S1133A6007C087ED05C084ED03C0D7018D929C92F9
S1133A70A7960FB6F894DEBF0FBECDBFDF91CF91EE
S1133A801F910F91FF90EF90DF90CF90BF90AF9078
S1133A909F908F907F906F905F904F900895BC019E
S1133AA0DC0112968C91843019F128F4823041F0B3
S1133AB0833091F00895853039F1863089F1089585
S1133AC0FB01878190850097B9F1DC01ED91FC91B0
S1133AD00280F381E02D2FC0FB0187819085009740
S1133AE059F1DC01ED91FC910480F581E02D23C0B6
S1133AF0FB01878190850097F9F0DC01ED91FC9141
S1133B000680F781E02D17C0FB018781908500971F
S1133B1099F0DC01ED91FC910084F185E02D0BC05E
S1133B20FB0187819085009739F0DC01ED91FC91D0
S1133B300284F385E02D09940895FC012185211167
S1133B40AEDF80E008952F923F924F925F926F9282
S1133B507F928F929F92AF92BF92CF92DF92EF9219
S1133B60FF920F931F93CF93DF93CDB7DEB7C05669
S1133B70D1090FB6F894DEBF0FBECDBF6C014B0167
S1133B802D965FAF4EAF2D972F963FAF2EAF2F9749
S1133B907801DC0113968D919C91149701961496EB
S1133BA09C938E93139721E030E03E832D83788796
S1133BB06F83A0E0B0E089879A87AB87BC871D86B6
S1133BC01E861F86188A198A1A8A1B8A1C8A1D8ACD
S1133BD01E8A1F8A188EFA012081277030E0223055
S1133BE0310599F02330310521F02130310529F5D3
S1133BF018C02F96EEADFFAD2F9780859185A285D5
S1133C00B3858D8B9E8BAF8BB88F2F96EEADFFADAA
S1133C102F9784819581A681B781898B9A8BAB8BF1
S1133C20BC8B2F96EEADFFAD2F9780819181A28141
S1133C30B3818D879E87AF87B88B220F331F220FE6
S1133C40331F245F3F4FC901A0E0B0E089839A830A
S1133C50AB83BC838E010F5F1F4F5801D60154966E
S1133C604C9154971A966C911A971C968D919C912D
S1133C701D97AED68111DCC02D96EEADFFAD2D970C
S1133C80808186FF9CC04181842F837021F0E114E0
S1133C90F10409F4D2C0D60113968D919C91149726
S1133CA0A0E0B0E019821A821B821C8222E030E07C
S1133CB03E832D8398868F8289879A87AB87BC87BA
S1133CC0842F837090E08130910591F0039761F522
S1133CD04695469550E04A01FCE08F0E911C240164
S1133CE0612C712CB701CE010D960E94F92A24C0D3
S1133CF0D701ED91FC910190F081E02DC701099568
S1133D002B013C01BCE04B0E511C611C711C942D19
S1133D10852DE1E44E1651046104710410F090E421
S1133D2080E0892E982E08C0ACE08A2E912CBCE04D
S1133D304B2E512C612C712C49825A826B827C82CD
S1133D4091E01E010DE0200E311C41145104610468
S1133D507104A9F12D96AEADBFAD2D9711968C913E
S1133D608370813081F4B401992321F06C5071097E
S1133D70A10101C0A501D701ED91FC910280F3815D
S1133D80E02DC701099585019401F60144896285F6
S1133D90848595851DD681114BC048185908610842
S1133DA07108942D852DF1E44F16510461047104BA
S1133DB010F090E480E0892E982E90E0C6CF1E018A
S1133DC005E4200E311CD1011D921D921D921C92FE
S1133DD0139719821A821B821C821E821D8282E022
S1133DE090E298878F8319861A861B861C86812CFD
S1133DF0912CA1961CAE1DAE1EAE1FAEA197E0E4A1
S1133E00F0E02B96FFAFEEAF2B9785019E01275B69
S1133E103F4FD60151964C9151971A966C911A972F
S1133E201C968D919C911D970E946F27882341F0C9
S1133E3061E070E080E090E0C6D982E090E22AC1BF
S1133E408114910491F029968CAD9DADAEADBFADBA
S1133E502997A1964CAC5DAC6EAC7FACA19748168B
S1133E6059066A067B0609F074C08D819E8103970A
S1133E7009F057C08F8198858130904209F04EC077
S1133E8069817A818B819C816C30710581059105F2
S1133E9008F444C08B019C010C501109210931091B
S1133EA0F2E03695279517950795FA95D1F707709F
S1133EB0000F000F000F2D96AEADBFAD2D972C91C6
S1133EC0277C202B2C93E114F10441F111964C91A1
S1133ED0242F237030E02130310571F02330310577
S1133EE0E9F44695469550E0B5012F968EAD9FAD09
S1133EF02F970E94F92A12C0D701ED91FC910190ED
S1133F00F081E02D25961CAE1DAE1EAE1FAE25978A
S1133F109E012F5B3F4FA501C70109958F819885AD
S1133F20B9C081149104A9F449805A806B807C80C3
S1133F30A1964CAE5DAE6EAE7FAEA19793018201A9
S1133F400034110521053105F0F46E966FAD6E97BE
S1133F501BC029968CAD9DADAEADBFAD2997A19682
S1133F604CAD5DAD6EAD7FADA197481B590B6A0B8F
S1133F707B0B413451056105710528F46E966FADD4
S1133F806E97681B01C060E4462E512C612C712C85
S1133F9063964CAE5DAE6EAE7FAE6397E114F104F2
S1133FA009F45EC02D96AEADBFAD2D9711968C91E0
S1133FB08370813059F4D701ED91FC9170E0019048
S1133FC0F081E02D9101A501C70109952D96EEAD73
S1133FD0FFAD2D9781818370833009F041C029960C
S1133FE04CAC5DAC6EAC7FAC29976D964CAE5DAEBF
S1133FF06EAE7FAE6D97B501D301C2012C013D01B8
S11340006D960CAD1DAD2EAD3FAD6D97401A510AA6
S1134010620A730A63962CAD3DAD4EAD5FAD6397F6
S11340204216530664067506D8F42D96EEADFFAD20
S11340302D9701810695069510E020E030E0801769
S11340409107A207B30760F4FB012191BF01870127
S1134050080F191FF80120830196A11DB11DCECFB1
S113406029968CAD9DADAEADBFAD299763964CAC92
S11340705DAC6EAC7FAC6397840D951DA61DB71D1A
S113408029968CAF9DAFAEAFBFAF29970FEF801AC3
S1134090900AB5CEC05ADF4F0FB6F894DEBF0FBEFC
S11340A0CDBFDF91CF911F910F91FF90EF90DF90E3
S11340B0CF90BF90AF909F908F907F906F905F90C4
S11340C04F903F902F900895EF92FF920F931F937C
S11340D0CF93DF9300D0CDB7DEB77C011A8219826B
S11340E000E010E020E030E0AE014F5F5F4F63E09E
S11340F070E129DD813020E2920739F4F70116825C
S113410015822FEF3FEF348323830F900F90DF91BD
S1134110CF911F910F91FF90EF900895EF92FF922E
S11341200F931F93CF93DF9300D000D000D0CDB76F
S1134130DEB77C018D81807881608F778D831E82CC
S113414081E090E0F701968385838FEF9FEF94835E
S1134150838341E050E060E070E049835A836B83DD
S11341607C8300E010E09E012F5F3F4FAE014B5F68
S11341705F4F62E070E1C701E6DC8C018E31F0E252
S11341809F0711F4C701A0DFC80126960FB6F89463
S1134190DEBF0FBECDBFDF91CF911F910F91FF9076
S11341A0EF900895CF93DF93EB01CB01B7DF81301C
S11341B0904211F483E08A83DF91CF9108950F93A5
S11341C01F93CF93DF9300D0CDB7DEB71A82198245
S11341D04770498300E010E0AE014F5F5F4FB3DCEE
S11341E00F900F90DF91CF911F910F910895CF936E
S11341F0DF93FC01EA0180819181892B49F560E814
S113420070E08EE391E00E94732A26C08881998130
S1134210892B11F1DB018D919C91DC015C9123814F
S113422030E0241B310980819181820F931FDC01CE
S11342305C938281815082838881998101979983DB
S11342408883DB018D919C91119701968D939C93AA
S113425042814111DBCF02C080E003C083818283AD
S113426081E0DF91CF910895FC018CE292E091838B
S113427080831582108681E0818712869F012E5FDC
S11342803F4F37832683128288E083838CE38483C1
S113429080E090E041E0DF01A80FB91F1D961C9259
S11342A01D971E964C931E971F961C921F971C9643
S11342B03C932E931B9705968B34910561F7EA582E
S11342C0FF4F108281E18093F304089520E030E0F1
S11342D041E0FC01E20FF31F5585561739F04F5F9B
S11342E02B5F3F4F4031A9F780E00895842F089554
S11342F0EF92FF921F93CF93DF9300D0CDB7DEB739
S11343007C01162F67FD5EC0283008F05BC0442393
S113431031F0DC0115968C91873009F453C060E0CC
S1134320C7012A834983D2DF2A814981882309F47A
S113433049C0E82FF0E0111123C085E08E9FD00121
S11343408F9FB00D1124AE0DBF1D442359F081E49D
S113435018968C93D70115968C9115978F5F1596A7
S11343608C9303C081E018968C9385E08E9FD001D6
S11343708F9FB00D1124AE0DBF1D18968C9123C0D4
S1134380612F6770660F660F660F442361F06064E7
S1134390D70115968C9115978F5F15968C9387701E
S11343A0687F682B03C02770687B622B85E08E9F33
S11343B0D0018F9FB00D1124AE0DBF1D18966C93C4
S11343C0862F01C080E00F900F90DF91CF911F9155
S11343D0FF90EF900895CF93DF93EC01662351F0A3
S11343E075DF882349F09E0145E0849F200D311D2F
S11343F01124C901069602C080E090E0DF91CF91BC
S11344000895CF93DF931F92CDB7DEB74983E3DFDF
S11344104981009789F0DC01ED91FC911197309767
S113442059F013969C9180E0891731F0208124176C
S113443031F033968F5FF8CF80E090E001C0CF0178
S11344400F90DF91CF910895EF92FF921F93CF9336
S1134450DF931F92CDB7DEB7162F790121153105F1
S113446061F04983B8DFFC014981009741F0128370
S1134470F182E082438380E003C088ED01C086EDD1
S11344800F90DF91CF911F91FF90EF9008952A989C
S11344900895CF93DF931F92CDB7DEB78983F7DFFB
S11344A089818EBD0DB407FEFDCF1EBC0DB407FE81
S11344B0FDCF0E949B068EB50F90DF91CF9108959A
S11344C0CF93DF9300D0CDB7DEB76A838983DFDF74
S11344D0898182608EBD6A810DB407FEFDCF6EBDF9
S11344E00DB407FEFDCF0F900F90DF91CF910C9488
S11344F09B068F929F92BF92CF92DF92EF92FF9290
S11345000F931F93CF93DF931F92CDB7DEB74C0168
S1134510B62E690149835FDF7C014981009709F464
S11345203FC0FC0180819181892B09F43BC06B2D34
S1134530C40167DFF601918380830097A9F1FC0130
S1134540228126952695822F90E0409764F441E0DD
S113455050E060E070E004C0440F551F661F771FF1
S11345602A95D2F702C040E050E841505109F801C1
S1134570518340836B2D80EEA3DF88ED8ADFF70142
S11345809481992339F0F401EA58FF4F6081626005
S1134590682B02C0682F697F88ED92DF80E005C038
S11345A086ED03C087ED01C08BED0F90DF91CF91B5
S11345B01F910F91FF90EF90DF90CF90BF909F904D
S11345C08F9008958F929F92AF92BF92CF92DF9275
S11345D0EF92FF920F931F93CF93DF931F92CDB768
S11345E0DEB7A62E890149830E94A7186B017C01BE
S11345F080E1C80E87E2D81EE11CF11C812C912CAD
S1134600B12C20E04981A42A29830E94A71829817A
S11346106C157D058E059F0540F56A2D80EF50DFF2
S11346200E94A7186C157D058E059F0538F488EC4B
S113463030DF87FFF5CF60E888EC42DF88EF29DFC1
S1134640282F2F70243019F02E3059F00EC0EFEFC0
S11346508E1A9E0A01151105B9F280169106A1F66B
S113466004C0B394F3E0BF12CFCF822F0F90DF9139
S1134670CF911F910F91FF90EF90DF90CF90BF905B
S1134680AF909F908F9008959F92AF92BF92CF92D8
S1134690DF92EF92FF920F931F93CF93DF937C01EE
S11346A0B42E122FAA24A394DC01A60FB11DA60FC9
S11346B0B11D6D0186E5C80ED11CC42FD0E0AB96A8
S11346C0CC0FDD1FCE0DDF1DD6018D919C91DC0139
S11346D0ED91FC910280F381E02D202F412F6B2D71
S11346E00995803EB9F4B1100AC061E088EEE8DEB5
S11346F066E670E080E090E00E94E31815C08881CF
S11347009981DC01ED91FC910284F385E02D612F08
S113471009950AC08D3031F48FEF8A0D833008F08B
S113472041C017C0811141C0F60180819181DC0133
S1134730ED91FC910190F081E02D202F412F6B2D04
S11347400995982EBDE08B130CC08FEF8A0D833032
S113475050F464E670E080E090E00E94E318A394D3
S1134760B3CF882309F1B1100AC061E088EEA8DE56
S113477066E670E080E090E00E94E31811C0EB2D43
S1134780F0E0BB96EE0FFF1FEE0DFF1D80819181BF
S1134790DC01ED91FC910284F385E02D612F0995F4
S11347A0892D03C08DE001C080E0DF91CF911F917E
S11347B00F91FF90EF90DF90CF90BF90AF909F90BC
S11347C008950F931F93CF93DF9300D0CDB7DEB737
S11347D08A016A8389835BDE898182608EBDF801E8
S11347E06A81862F882339F00DB407FEFDCF91919D
S11347F09EBD8150F7CF060F111D0DB407FEFDCFEE
S11348000E949B06C8010F900F90DF91CF911F91DA
S11348100F9108952F923F924F925F926F927F92E1
S11348208F929F92AF92BF92CF92DF92EF92FF92BC
S11348300F931F93CF93DF9300D000D01F92CDB777
S1134840DEB77D836C835A016901FB0121808FEF00
S1134850820D803408F067C00E94A7182B013C0128
S1134860F0E14F0EF7E25F1E611C711CEC81FD81CB
S1134870828180FF02C060E801C060E488EE20DE2F
S113488020E0312CC114D10409F43EC076012C146B
S11348903D0408F47101EA82A8016E2D80E191DFE4
S11348A06E2D88E30DDEEC81FD816081606280EF16
S11348B007DE88ECEEDD87FFFCCF60E888EC00DEE5
S11348C088EFE7DD282F2F70812C912C1982222369
S11348D009F461C02B830E94A7182B816415750508
S11348E08605970508F057C02630F9F02E3009F4F4
S11348F04CC0243049F4FFEF8F1A9F0AA114B1046D
S113490041F18A149B0429F588EF2B83C2DD85FBD2
S1134910882780F9EC81FD81928180FB90F9928354
S11349202B81822F3DC08AED3BC088EFB2DD85FB31
S1134930882780F991E08927EC81FD81928180FBB1
S113494090F9928390FF02C060E801C060E488EEB1
S1134950B7DD60E088E3B4DDF801608180E1B0DDBB
S11349606A8188E3ADDDEC81FD816081606280EF66
S1134970A7DD88EC8EDD87FFFCCF60E888ECA0DD46
S113498088EF87DD282F2F70A2CF89818F5F8983DD
S11349908330F9F6B9CFCE18DF080E0D1F1D72CF84
S11349A00F900F900F900F900F90DF91CF911F9168
S11349B00F91FF90EF90DF90CF90BF90AF909F90BA
S11349C08F907F906F905F904F903F902F900895BD
S11349D0AF92BF92CF92DF92EF92FF920F931F9309
S11349E0CF93DF9300D000D0CDB7DEB77C0169014F
S11349F058011C821B821A8219828E010F5F1F4F7D
S1134A009E012D5F3F4F75DD811108C049815A8198
S1134A106B817C8185019601C701FCDE0F900F90AC
S1134A200F900F90DF91CF911F910F91FF90EF9016
S1134A30DF90CF90BF90AF9008952F923F924F9206
S1134A405F926F927F928F929F92AF92BF92CF921A
S1134A50DF92EF92FF920F931F93CF93DF9300D0D7
S1134A6000D0CDB7DEB75C017C836B834A0179014A
S1134A70F901C080D180FB014180F90111821082CB
S1134A80FB01828181FF02C060E201C060E188EE27
S1134A9017DD3C2C9401EB81FC81408160E0C50171
S1134AA091DD582EF6E08F1315C088EFF2DC85FBFC
S1134AB0882780F991E08927EB81FC81928180FB32
S1134AC091F9928391FF02C060E201C060E188EE37
S1134AD0F7DCE0CF811155C088ECDBDC82FF4FC0EE
S1134AE080E3D7DC282E282F30E0C216D30608F442
S1134AF0232CF70120813181622C712CA601421BE9
S1134B00530B57FF02C040E050E093014615570590
S1134B100CF49A0129833A83BADCF8E0FEBD3A81A9
S1134B2029810DB407FEFDCFF801822F800F8E1767
S1134B3039F01EBC0DB407FEFDCF4EB54193F7CF3F
S1134B40020F131F0E949B0664E088ECB9DCF70196
S1134B5020813181260D371D31832083241420F0D8
S1134B602C153D0508F496CF88EF93DC829581706F
S1134B70EB81FC81928180FB91F9928302C030EF3A
S1134B80532E852D0F900F900F900F90DF91CF91A2
S1134B901F910F91FF90EF90DF90CF90BF90AF9057
S1134BA09F908F907F906F905F904F903F902F9049
S1134BB008952F923F924F925F926F927F928F92BD
S1134BC09F92AF92BF92CF92DF92EF92FF920F9398
S1134BD01F93CF93DF93CDB7DEB762970FB6F894E8
S1134BE0DEBF0FBECDBF3C01542ED22E402E5E2D13
S1134BF02FA038A4E9A4FAA4188A1F861E861D864D
S1134C008E01035F1F4F9E01215F3F4F598B71DC63
S1134C10598981118DC0D9824A825B83CC82BE823C
S1134C20AD8298868F82AE014F5F5F4F68E080E26D
S1134C30C8DD2D853E85452D60E1C301C3DC182FF9
S1134C40811175C0BD2CBB1CBB24BB1CE114F10439
S1134C5009F462C0EF85F8898281BB2009F450C051
S1134C60826082836401AA24A394C114D10409F448
S1134C7051C03C862B864D855E856F85788987017A
S1134C809E01255F3F4FC301D8DE182F8630A9F45B
S1134C902F85388988EF298B3A8BFBDB85FB8827A6
S1134CA080F98A2529893A89D90112969C9112970B
S1134CB080FB91F912969C93D8CF811138C0EBA553
S1134CC0FCA53097A1F00190F081E02D0190F081D6
S1134CD0E02DC4018C199D099A8789876B857C8591
S1134CE09E01275F3F4FA7018BA59CA509958B8546
S1134CF09C85C81AD90A8215930508F0B6CF0CC052
S1134D00816082834D855E8587019101BF01C30166
S1134D1081DD182F11110BC02D853E85BB2011F0AC
S1134D2060EA01C060E8452DC3014CDC01C0812F5D
S1134D3062960FB6F894DEBF0FBECDBFDF91CF9160
S1134D401F910F91FF90EF90DF90CF90BF90AF90A5
S1134D509F908F907F906F905F904F903F902F9097
S1134D6008958F929F92AF92BF92CF92EF920F933A
S1134D701F931F921F921F930F933F932F934901E9
S1134D80A12CB12CCC24C394E12C06E020E811DF43
S1134D900F900F900F900F900F900F901F910F9105
S1134DA0EF90CF90BF90AF909F908F9008958F9287
S1134DB09F92AF92BF92CF92EF92FF920F931F9266
S1134DC01F92FF92EF923F932F934901A12CB12C94
S1134DD052E0C52EE02E06E020E8EBDE0F900F90A7
S1134DE00F900F900F900F900F91FF90EF90CF9036
S1134DF0BF90AF909F908F9008958F929F92AF92A3
S1134E00BF92CF92EF920F93CF931F921F921F9254
S1134E101F921F921F92812C912CA12CB12CC12C7A
S1134E20E22E05E020E0C5DEC82F6CE271E080E0F0
S1134E3090E00E94E3180F900F900F900F900F9046
S1134E400F908C2FCF910F91EF90CF90BF90AF9098
S1134E509F908F9008958F929F92AF92BF92CF921E
S1134E60EF920F931F921F921F921F921F921F92F5
S1134E70812C912CA12CB12CC12CE22E09E020E034
S1134E8098DE0F900F900F900F900F900F900F914E
S1134E90EF90CF90BF90AF909F908F9008951F9305
S1134EA0CF93DF93182FEB01282F30E0E4E0359502
S1134EB02795EA95E1F780E3820F8A3310F087E3C0
S1134EC0820FBE0103D31F7080E3810F8A3310F079
S1134ED087E3810FBE01DF91CF911F91F7C28F92BB
S1134EE09F92AF92BF92CF92DF92EF92FF920F9375
S1134EF01F93CF93DF9300D000D0CDB7DEB77C01F2
S1134F00862E942E690158011C821B821A821982F2
S1134F108E010F5F1F4F9E012D5F3F4FEADA182F5E
S1134F20882361F161E870E083EA91E0DCD261E812
S1134F3070E0812FB4DF61E870E080EA91E0D3D2C1
S1134F4061E870E08EE791E0CED261E870E0882DF0
S1134F50A6DF61E870E08BE791E0C5D261E870E01C
S1134F608BE591E0C0D261E870E0892D98DF61E8BB
S1134F7070E088E591E0B7D2812F08C049815A8159
S1134F806B817C8185019601C70157DD0F900F90DD
S1134F900F900F90DF91CF911F910F91FF90EF90A1
S1134FA0DF90CF90BF90AF909F908F900895CF9255
S1134FB0DF92FF920F931F93CF93DF9300D0CDB76F
S1134FC0DEB76C01662309F441C0062F10E085E0CA
S1134FD0689FB0011124F601E60FF71F8085282F82
S1134FE0277086FF19C031E0F5E0FF2EF601F39E2D
S1134FF0E00DF11D11248085869586958695877030
S11350008217E1F03F5F303188F3F6018581821326
S113501003C02150F601258385E0809FF001819F24
S1135020F00D1124EC0DFD1D108681E081871286A0
S113503082E0C80ED11CD782C68208C0632FC60185
S11350402A833983B4DF2A813981D0CF0F900F901E
S1135050DF91CF911F910F91FF90DF90CF90089532
S1135060CF93DF93EC016134A1F4FC01855B9F4F86
S113507041E09E012E5F3F4F158646871786348791
S113508023873596E817F907B9F71D82DF91CF9189
S113509008951CD9682FCE01DF91CF9188CF0F934B
S11350A01F93CF93DF93EC01022FCA3F8FEFD807F2
S11350B011F486ED25C08E819F81892BE1F02A872A
S11350C0242F40E0CE0114D9182F8823B1F0682F83
S11350D0CE0181D9009769F3FC010483212F40E0BC
S11350E060E0CE018ADE082F882349F0612FCE01CB
S11350F0B7DF802F05C087ED03C084ED01C080E0D9
S1135100DF91CF911F910F9108953F924F925F923B
S11351106F927F928F929F92AF92BF92CF92DF92C3
S1135120EF92FF920F931F93CF93DF93CDB7DEB728
S113513065970FB6F894DEBF0FBECDBF7C01662E17
S1135140542E722E1B8A88E08C8B8CE38D8BD701B6
S1135150ED91FC910190F081E02D60E0C70109958B
S11351606C01009709F48DC0FC01A080B180CE01D0
S113517043969183808374828E010F5F1F4F22E1D7
S113518030E040E060E0C701ECDDD601AD92BC92B6
S113519081118DC0A984BA848B849C844D8067015D
S11351A0312C86010A5A1F4FF801808191810097A2
S11351B051F43394F2E0CF0ED11C80E13812F1CFD8
S11351C06701312C25C0DC01ED91FC910084F1854F
S11351D0E02D09958111EDCFF80180819181DC01E9
S11351E0ED91FC910484F585E02DA401B5010995A8
S11351F0811149C0F80180819181DC01ED91FC911C
S11352000684F785E02D642D099581113CC0D1CF2A
S113521086010A5A1F4FF80180819181009721F17C
S1135220DC01ED91FC910084F185E02D099581115B
S11352301BC0F80180819181DC01ED91FC91048413
S1135240F585E02DA401B501099581110DC0F80182
S113525080819181DC01ED91FC910684F785E02D3C
S1135260642D09958823C9F03394B2E0CB0ED11C88
S1135270E0E13E12CDCF272D452D662DC7010FDF6E
S113528016C086ED14C0072D252D462D632DC701AC
S1135290FBD9813D09F48DCF0AC0072D252D462D5C
S11352A0632DC701F1D9982F977F913DE9F2659657
S11352B00FB6F894DEBF0FBECDBFDF91CF911F9123
S11352C00F91FF90EF90DF90CF90BF90AF909F90A1
S11352D08F907F906F905F904F903F900895CF9202
S11352E0DF92EF92FF921F93CF93DF93EC01199912
S11352F00CC088ECCED885FF05C0CE010E94B40650
S113530060E201C060E088ECDBD880913202813039
S113531049F050F0823021F0833031F511E00DC0B6
S113532010E00BC083E106C08091F304807F8031DC
S1135330D9F081E18093F30417C08091F304807F56
S1135340803199F40E94A71868537F4F8F4F9F4F65
S11353506093EF047093F0048093F1049093F2044B
S113536080E28093F30401C010E0E12CF12CFE01F3
S1135370EE0DFF1DEA5AFF4F80819181009739F0AD
S1135380DC01ED91FC910680F781E02D0995B2E0F6
S1135390EB0EF11C80E2E816F10449F78091F30466
S11353A0803409F447C070F4803279F18033E9F134
S11353B0813109F083C0FE01EA58FF4F1082E12CCD
S11353C0F12C0AC0813509F457C0803809F466C04D
S11353D0803509F073C03AC0FE01EE0DFF1DEA5A94
S11353E0FF4F80819181009739F0DC01ED91FC91B0
S11353F00480F581E02D0995B2E0EB0EF11C80E20A
S1135400E816F10449F782E157C0C090EF04D09048
S1135410F004E090F104F090F2040E94A718C6167C
S1135420D706E806F90608F049C061E088EE48D8D6
S113543080E442C088EE2DD880FD40C088ED29D894
S1135440682F686088ED3CD880E536C088EC21D8A8
S113545086FF34C081E58093F3040E94A7186C5E34
S11354607F4F8F4F9F4F6093EF047093F0048093AE
S1135470F1049093F20422C0C090EF04D090F004A1
S1135480E090F104F090F2040E94A718C616D70623
S1135490E806F90698F480E88093F304212F40E0AD
S11354A060E0CE0132DE882331F0823D39F0809312
S11354B0F40480EA01C080E98093F304DF91CF9182
S11354C01F91FF90EF90DF90CF90089540911801C5
S11354D050911901461757072CF0682F8CE394E07C
S11354E00C945F1708950F931F93CF93DF93EB01F1
S11354F02091180130911901261737076CF0009795
S113550059F0FC0184918F010F5F1F4F882321F014
S1135510BE01DCDFF801F6CFDF91CF911F910F912F
S1135520089597FB072E16F4009406D077FD08D053
S113553037D007FC05D03EF4909581959F4F089590
S1135540709561957F4F0895A1E21A2EAA1BBB1B8B
S1135550FD010DC0AA1FBB1FEE1FFF1FA217B3073B
S1135560E407F50720F0A21BB30BE40BF50B661F51
S1135570771F881F991F1A9469F760957095809515
S113558090959B01AC01BD01CF01089523D0A59F47
S1135590900DB49F900DA49F800D911D112408952A
S11355A0AA1BBB1B51E107C0AA1FBB1FA617B70745
S11355B010F0A61BB70B881F991F5A95A9F7809561
S11355C09095BC01CD010895EE0FFF1F0590F49155
S11355D0E02D0994A29FB001B39FC001A39F700D59
S11355E0811D1124911DB29F700D811D1124911DE7
S11355F00895FB01DC0102C001900D92415050401E
S1135600D8F70895F999FECF92BD81BDF89A9927EC
S113561080B50895A8E1B0E042E050E013C0262F21
S1135620F999FECF1FBA92BD81BD20BD0FB6F89483
S1135630FA9AF99A0FBE01960895F1DF272FF0CF59
S1135640DC01CB01FC01F999FECF06C0F2BDE1BD3E
S1135650F89A319600B40D9241505040B8F708952D
S113566011E0CEECD1E003C0FE01B0DF2296C03DD4
S10B5670D107D1F7F894FFCF34
S1135678630257024B023F023302730201036400C0
S11356883F0351036C03F70480000000400014003A
S11356985400000000004105FF164F53432064697D
S11356A864206E6F742073746172742E0053657471
S11356B875700052756E000000000003085F080052
S11356C8000000FE16A60800000000510C5409173B
S11356D81BE20C5B095609570959095E090E0CE6C9
S11356E8FF0000500D00000000520DD220111B6372
S11356F80D151B161B000000007B0D880DFE16FE01
S11357081600000000810D8F0D960D870D46726DF1
S11357180000000000D00DB20D416D7400446C7996
S11357280052737400616476616E636543617265E7
S113573874206469723A20002066726F6D20436F8A
S11357486C756D6E3A200020746F20436F6C756D14
S11357586E3A2000000000000511FA110000000054
S11357688C14601435143D1450145F1400000000A8
S11357786115FF160315321516155615000000009D
S1135788831A00000000FE1B5409171B9D1D5B09AA
S11357985609570959093B1B00000000EB217821E1
S10557A83028A3
S9030000FC
